:02000004901159
:105300006F0040009702F36F9382C20E7390523089
:105310007350003073504030930240007390227CF1
:105320000F00F00F9302C0007390327C0F00F00F5B
:1053300097E1EE8F9381C10F17B1EE8F1301812C8E
:1053400097D2EE8F938202AC17030800130383E613
:105350000B30030097C3EE6F9383C3AE63800302E9
:105360000B0083FF130303020B3003000B9082FF3B
:1053700093820202938303FEE34470FE97C2F26FAE
:105380009382425A175300001303C3290B300300C2
:105390009733EF6F93830369638003020B0083FFEE
:1053A000130303020B3003000B9082FF938202026F
:1053B000938303FEE34470FE97B2F26F938282C43C
:1053C00017030000130303240B3003009303004171
:1053D000638003020B0083FF130303020B300300FF
:1053E0000B9082FF93820202938303FEE34470FEDC
:1053F00097C2F26F9382821A17C3F26F130303529C
:10540000638A62009303000023A07200938242002B
:10541000E3CC62FE97B2F26F9382C2FF17B3F26FD2
:105420001303C310638A62009303000023A0720079
:1054300093824200E3CC62FE9752F36F938282F034
:105440001793F36F130383A9638A62009303000029
:1054500023A0720093824200E3CC62FE97B2F26F07
:105460009382C20C170300001303835D97C3EE6F92
:10547000938343C0E38E03F6032E030023A0C201EF
:1054800093824200130343009383C3FFE34670FEFD
:10549000B762000073A002307310300097E2000082
:0854A000938262646780020040
:1054A80000000000CAFED00D02000000000000004D
:1054B800627332316520312E302E31380000000001
:1054C80000000000000000000000000000000000D4
:1054D80000000000000000000000000000000000C4
:1054E800756E6B6E6F776E000000000000000000A4
:0854F8000000000000000000AC
:10560000000000000000000000000000000000009A
:10561000000000000000000000000000000000008A
:10562000000000000000000000000000000000007A
:105A10001E3C1290489011904A8411905884119025
:105A2000903C1290007A11909A3C1290168C119032
:0C5A30003A81119046891190E03B1290E1
:105A3C0017330E90670023B417330E90670043B6EC
:105A4C0017330E90670083EF17330E906700E32433
:105A5C0017730D90670023B7175312906700235EDE
:105A6C001753129067000353175312906700C377B4
:105A7C001753129067000377175312906700035265
:105A8C00175312906700435117D30E906700237978
:105A9C0017E30E906700E3B517E30E90670063AF52
:105AAC006F90007C0000000017E30E90670043AE7F
:105ABC006F90F0010000000017030F9067008364E3
:105ACC0017030F906700235F17531290670063C092
:105ADC0017E30E906700635617030F906700A3D46B
:105AEC0017C312906700038417531290670003BC0E
:105AFC00175312906700C3BC175312906700C3BCB6
:105B0C0017B312906700C37317531290670043B713
:105B1C0017531290670023B617B312906700C35B3C
:105B2C0017B312906700035B17B3129067004369B9
:105B3C0017B312906700A36117B3129067008375B7
:105B4C0017030F906700636117030F906700435EA4
:105B5C0017030F906700A36617030F90670083630A
:105B6C0017B312906700E35D17B30E906700C34044
:105B7C0017B312906700635617B31290670003585F
:105B8C0017B312906700A35317631090670083AD8F
:105B9C0017631090670003AC17631090670003AC99
:105BAC0017631090670023AA176310906700C38EC9
:105BBC00176310906700C38E176310906700038DF6
:105BCC00176310906700C38E176310906700E39102
:105BDC0017631090670023FF17631090670083FC16
:105BEC00176310906700A3FE17631090670023C320
:105BFC00176310906700E3C56F90E0600000000031
:105C0C0017D30E906700433617D30E906700633698
:105C1C006F90E05F000000006F90E05D00000000FE
:105C2C0017930D906700C3EE17930D906700A3EACE
:105C3C006F904054000000006F902058000000004E
:105C4C006F90E05B0000000017930D90670043F12C
:105C5C0017930D90670023ED17D30E906700434107
:105C6C0017930D90670023F117D30E906700033143
:105C7C0017D30E906700E31217D30E90670023140E
:105C8C0017D30E906700031617130F906700238A23
:105C9C0017130F906700A38717B312906700A344E4
:105CAC006F808055000000006F80604A000000008B
:105CBC00175310906700E372175310906700436DF1
:105CCC006F801015000000006F90A03E00000000D7
:105CDC006F90A02E000000006F70506D000000004F
:105CEC006F701064000000006F70306900000000DD
:105CFC006F70D069000000006F70706400000000CD
:105D0C006F701066000000006F802009000000001A
:105D1C006F802021000000006F70D07F0000000019
:105D2C006F70106900000000174315906700037E28
:105D3C0017230F90670003BF17230F906700A3BDB5
:105D4C0017230F906700A3BB17230F906700E3BBCB
:105D5C0017230F906700C3BD17230F906700832193
:105D6C0017230F906700832517430F906700C3908C
:105D7C0017330F90670063A017330F906700039FD2
:105D8C0017430F906700C3B117330F906700637808
:105D9C0017330F906700837317330F906700037AE4
:105DAC0017530F906700A38917430F906700C37AAE
:105DBC0017430F90670083D117430F90670023C3DD
:105DCC0017230F90670083A017331590670003709B
:105DDC0017230F906700E39D17230F9067006396BE
:105DEC0017230F90670063A317230F906700E392AC
:105DFC0017230F906700238D17830F906700C3A79D
:105E0C0017830F906700C3CA17630F906700830F47
:105E1C0017830F90670043CD17630F906700E398CB
:105E2C00174315906700C39D17830F906700E3AD70
:105E3C0017630F906700230517630F906700830BA0
:105E4C0017830F90670043A817630F906700838C2C
:105E5C0017630F906700231117730F906700030BE4
:105E6C0017630F906700437717630F906700E394F5
:105E7C0017630F906700038C17B312906700C3274A
:105E8C00176311906700C30C1763119067004306EA
:105E9C00176311906700A32217631190670003B674
:105EAC00176311906700A3DA176311906700E3D7AB
:105EBC00176311906700A3B317531290670063C365
:105ECC00175312906700E30017531290670043C2F8
:105EDC0017531290670003C217531290670023E404
:105EEC0017531290670023C1175312906700C3C059
:105EFC00175312906700630017531290670043ED1D
:105F0C0017531290670003E3175312906700E3EAEC
:105F1C00175312906700C3E0175312906700A3E861
:105F2C0017531290670003FD175312906700C3F2CA
:105F3C00175312906700A3FC17531290670023E9C4
:105F4C0017531290670023BC175312906700C3BB02
:105F5C0017531290670063BA17531290670003032C
:105F6C00175312906700C300175312906700C301B8
:105F7C00175312906700E3001753129067002338F1
:105F8C00175312906700C300175312906700E33247
:105F9C001753129067002334175312906700C325D0
:105FAC0017531290670083251753129067008324B0
:105FBC00175312906700C32317531290670083384E
:105FCC0017531290670003FB17531290670043237B
:105FDC00175312906700832117531290670043FCEC
:105FEC0017531290670023FA175312906700C3F8E7
:105FFC00175312906700A3F8175312906700E3F73A
:10600C0017531290670003F617531290670003F6AC
:10601C0017531290670083AB17531290670083AB32
:10602C0017531290670003AC175312906700C3AA62
:10603C00175312906700C3AA17531290670003AB53
:10604C001753129067006349175312906700634906
:10605C0017531290670043731753129067004373E2
:10606C001733159067000304172312906700636BB6
:10607C00174312906700E30017431290670023F256
:10608C0017431290670023FE174312906700830A90
:10609C0017130F90670003A617130F90670083A0C8
:1060AC0017130F906700639E1713129067004375C8
:1060BC00174312906700A39B174312906700039538
:1060CC00174312906700039F174312906700439D7C
:1060DC00170312906700A30B171312906700E3A627
:1060EC00174312906700E320170312906700A34C2C
:1060FC0017431290670083A4174312906700E3A61E
:10610C00174312906700830D174312906700830B9F
:10611C0017431290670023DA17431290670003E5C8
:10612C00170312906700830717130F906700E3990A
:10613C001743129067006302172312906700C3EA9B
:10614C0017131290670063701713129067002339AE
:10615C00171312906700632F174312906700631494
:10616C00171312906700433E17231290670023A069
:10617C00171312906700433A172312906700E392AB
:10618C0017431290670083D717431290670003D60A
:10619C0017431290670003DA174312906700C3D7B6
:1061AC00174312906700C3DA1743129067004392AB
:1061BC00174312906700C396173312906700639EC3
:1061CC00173312906700639E17031290670003FC4D
:1061DC0017030F906700A33A17030F9067008339DA
:1061EC0017030F906700E33A17030F906700A3396A
:1061FC0017030F906700633B17030F906700233A58
:10620C0017030F906700833617030F9067006335F1
:10621C0017631190670003C56F90A0030000000086
:10622C00175312906700032D175312906700C33653
:10623C00175312906700C3351753129067004336FB
:10624C00175312906700832D175312906700433237
:10625C001753129067004333175312906700C32BE8
:10626C00175312906700632B175312906700C330BB
:10627C00175312906700C330175312906700C32E48
:10628C00175312906700432D175312906700432C3D
:10629C00175312906700432B175312906700A328D3
:1062AC001753129067002324175312906700C32FC3
:1062BC00175312906700C32F1753129067002326B1
:1062CC00175312906700E32517531290670083252C
:1062DC0017531290670043251753129067004325FC
:1062EC00175312906700A335175312906700C324FD
:1062FC001753129067008331175312906700C32B0A
:10630C00175312906700C32B172312906700630476
:10631C001723129067008338172312906700A32A63
:10632C00172312906700633D173312906700E3B593
:10633C00173312906700236417331290670083CBD6
:10634C00173312906700E3D5173312906700C3EC34
:10635C00173312906700230A173312906700031942
:10636C00173312906700632317B31290670043D85A
:10637C00173312906700A311176310906700C3D5F1
:10638C00178310906700A3D817631090670003D48D
:10639C00176310906700A3CF176310906700E3CCCE
:1063AC00176310906700E3CD176310906700A3CCC0
:1063BC00176310906700E3C917631090670023CA36
:1063CC0017831090670063DA176310906700A3CDF2
:1063DC0017631090670063EA17731090670043D738
:1063EC0017731090670083D717831090670063D9D9
:1063FC0017631090670063CA17931090670043B53A
:10640C00178310906700A3281783109067006327E9
:10641C00179310906700C3AD17A310906700A3C328
:10642C0017A310906700A38F179310906700433B3E
:10643C00179310906700E3C2174311906700233045
:10644C00174311906700034D174311906700837534
:10645C0017531190670083A417431190670063349E
:10646C0017B310906700A3DD17D31090670083A2B9
:10647C0017B310906700E3E917B31090670083EC33
:10648C0017D310906700638C17B310906700038BC1
:10649C0017B31090670023C417B310906700A3CDF7
:1064AC0017B31090670063D317D3109067008390D5
:1064BC0017C310906700436617A310906700E3346E
:1064CC0017A310906700637217D310906700438F67
:1064DC0017C310906700C35D17A30E906700836FFE
:1064EC0017A30E906700237217A30E906700037515
:1064FC0017A30E906700237817A30E906700837B79
:10650C0017A30E906700237F17B30E906700E396D6
:10651C006F30905F000000006F307068000000006A
:10652C0017630D90670023146F4080120000000069
:10653C006F00D011000000006F0070100000000010
:10654C0017A30E906700832617F30E906700234D58
:10655C0017F30E906700835B17F30E906700A35B35
:10656C0017F30E906700C35217F30E906700834A1F
:10657C0017F30E906700C35817F30E9067008357FC
:10658C0017F30E906700635617F30E906700435590
:10659C0017F30E906700036617F30E906700C3683D
:1065AC00176311906700E3B517F30E906700E3795A
:1065BC0017F30E906700636E17B312906700E3B782
:1065CC00174312906700A3C517631190670043F43B
:1065DC0017631190670063FC17631190670043E821
:1065EC00175312906700A31B175312906700A31A3E
:1065FC00175312906700431A175312906700E31950
:10660C0017531290670003196F40000E0000000032
:10661C006F307051000000001753119067006346F3
:10662C001753119067006359175311906700834EED
:10663C00175311906700235A6F30304C0000000044
:10664C0017F30E906700A36117B312906700E3AFC6
:10665C0017B312906700C3AD17B312906700A3AEC7
:10666C002C0107000700170005020200FFFF0000C5
:10667C0001000000010000000100BC0DAC0D2C0E4F
:10668C00CC0D1000540BD40ACC0F2C0E0800282271
:10669C00CC192805D02E04010808B0260401CC0F13
:1066AC0007000C1B040110000C181000140A100039
:1066BC00740AD40B1000D40B540B0800682405008A
:1066CC00E4330401004006010A00000503000A003F
:1066DC000A00000500FC100732FC064C08000A00FA
:1066EC00020002000A00000060EA00001400000032
:1066FC00409C00000A00010001009700080A0000FD
:10670C000000000058781190FFFFFFFF0000000010
:10671C00286E696C29000000286E756C6C290000CD
:10672C00280000006E000000750000006C000000E6
:10673C006C000000290000000000000000000000B8
:10674C00C83E0300F63D030076310300D259169083
:10675C00CC591690CA1E0300421F0300E82C0300FC
:10676C00D8591690EA591690DC591690E2591690A1
:10677C00010000000000000000000000000000000C
:08678C0000000087000000007E
:1067940000010000C4DC129001020000D8DC129059
:1067A40002030000E6DC129003020000E8DC129011
:1067B400020400008EDF12900405000066DF1290D0
:1067C4000504000068DF12900402000000000000CD
:1067D40002000000F2DC12901C250000941100005D
:1067E40000000000000000000000000000000000A5
:1067F4000000000000000000000000000000000095
:106804000000000000000000000000000000000084
:106814000000000000000000A4A10400000000002B
:106824000000000000000000000000000000000064
:106834000000000000000000000000000000000054
:106844000000000000008000000000087A0C000036
:10685400EEEF332B1D1CA2000D0000000001000010
:10686400A27C0100AD7C010001010000A27C0100BA
:10687400AD7C0100FFFFFF000000000000000000ED
:10688400FFFFFF000000000000000000D4000080B3
:1068940000500000CC000000030303003CA00100F2
:1068A40040A0010044A001007EA00100F6A0010068
:1068B40010A10100569F01005A9F01005E9F010034
:1068C400909F010008A0010022A00100B8C60400A6
:1068D400ACC60400860D1390920D1390BC0E139059
:1068E4005C0F139000180400F4170400A2A1010027
:1068F4001AA20100000000000000000000000000D7
:106904000000000000000000000000000000000083
:1069140000000000101804000418040014A301006F
:10692400C0A3010024A40100B8A40100FFFFFFFFDD
:10693400FFFFFFFF060000001E00282300000000E8
:106944000000000000000000000000000000000043
:106954000000000000000000000000000000000033
:106964000000000000000000000000000000000023
:1069740000000000B012020000000000000000004F
:106984000000000000000000000000000000000003
:106994000000000000000000AE1202000000000031
:1069A4000500640002056400000000002D01DD0103
:1069B4005A02BB020A034D038703BA03E803110416
:1069C40037045A047A049804B404CE04E704FF0498
:1069D40015052A053E0552056405760587059705C4
:1069E400A705B605C505D305E105EF05FB050806B2
:1069F400140620062C06370642064D065706610685
:106A04006B0675067F06880691069A06A306AC06F1
:106A1400B406BC06C406CC06D406DC06E306EB06C4
:106A2400F206F906000707070E0715071C072207D9
:106A340029072F0735073B07410747074D0753072A
:106A440059075E0764076A076F0774077A077F07A9
:106A5400840789078E07940798079D07A207A7074D
:106A6400AC07B007B507BA07BE07C307C707CC070B
:106A7400D007D407D907DD07E107E507E907ED07E4
:106A8400F107F507F907FD070108050809080D08CE
:106A94001008140818081C081F08230826082A08C8
:086AA4002D0831083408380800
:106AAC00000000003880B7A70400AA85AA8403A5BB
:106ABC0087419700F36FE780C0B02A8401C9A6868E
:106ACC000146A6859760F26FE780C07022853480FE
:106ADC003880B7A70400AA85AA8403A5874197002C
:106AEC00F36FE78080B22A8401C9A6860146A68589
:106AFC009760F26FE780006E22853480B7A70400A0
:106B0C00AA8503A587411703F36F670083AB388011
:106B1C00B7A70400AA85AA8403A587419700F36F41
:106B2C00E78020AA2A8401C9A6860146A68597601B
:106B3C00F26FE780206A2285348017B3F26F67000A
:106B4C00E3DF588019E17D55548000416DFCB7A9F5
:106B5C000400AA8403A58941B1459700F36FE7802F
:106B6C0040A688C06DD1EF00705E2A8909C98C409F
:106B7C0003A589419700F36FE780A0AC80C04A85DC
:106B8C00E1B738801DC12A840841EF001061B7A716
:106B9C000400AA840C4003A587419700F36FE7809B
:106BAC0040AA26852320040034807D55F5BF18812A
:106BBC0081CD36863AC4AE8632C658000146994518
:106BCC002AC2EF00506914817D55F5BF81456F00D5
:106BDC0070741880EF00D0760F00F00F14801880BE
:106BEC00EF0090770F00F00F14806F0070786F102B
:106BFC00401505C11C413BF7071437A704000327B8
:106C0C0047365B17F7147827BB11070199E36F0020
:106C1C00F07C7D558280288019C52A840841EF10AC
:106C2C008001232004002480AE8709C963C80500B5
:106C3C00AA851395070141816F10A0427D55828072
:106C4C00AE8709C93BF40502AA851395070141815A
:106C5C006F1080427D55828001C508416F10E04263
:106C6C008280788201E5814426857482B7AA04006B
:106C7C002A8403A58A41AE8991453689328A9700C8
:106C8C00F36FE7800094AA8479DD2317010052CCBE
:106C9C0093070020CA866373F900BE86A9472316A2
:106CAC00F1002C0093070010480036CA3ECE22C4D7
:106CBC004EC802C2EF10704709C903A58A41A685C8
:106CCC009700F36FE780E09779BF92479CC069BF4C
:106CDC0009C50841A19D6F10B04D7D55828005C13D
:106CEC002880B7A704000041AA8503A58741970017
:106CFC00F36FE7800095228520806F10103682801C
:106D0C001880EF00706801451480288005C95C412B
:106D1C0095C71C4185E72A84484597F0F26FE780B8
:106D2C00806709CD484497F0F26FE780C06618443D
:106D3C005040A286894520806F10004E7D552480DE
:0C6D4C0001C50A216F1060667D55828031
:106D580018800147814601469F05403E04001305FF
:106D6800F004813D9F074C70119083C5F70413050B
:106D7800F004B53D1305F004B93DB7D7025723A079
:106D88000794054723A0E7941D4723A6E79414809A
:106D9800C1B7B7470057239207227D572390E722B0
:106DA800B7C70257239C071E7D472392E71E239CE3
:106DB800E71E2398071C85462396D71C2398D71CC3
:106DC8002398071E2396E71E6D472398E71E8280A7
:106DD8005880BB7F1508ADCD2E89AA8997B0F26F70
:106DE800E78080BD1F074C1F00200043AA84631B57
:106DF800E402268597B0F26FE78080BD8145714532
:106E08006531AA8431C92304350131051D2897B09D
:106E1800F26FE78060BA5C4089CF44C080C0DCC0B4
:106E280084C301A81C24639C37011305C4001128DE
:106E3800268597B0F26FE780A0B9014554800040DD
:106E48007DB7C1464A86B6851773F26F6700E3BF00
:106E58001F0501000080DDB71F0505000080F9BF90
:106E680005CD18419F07C0C3040098C35841D8C333
:106E7800184598C75845D8C7184998CB5849D8CB0A
:106E8800184D98CF584DD8CF185198D35851D8D3BA
:106E9800185598D75855D8D782806880BB7935035C
:106EA800BBF8350779CE1C46E9CF32842E8AAA89E9
:106EB8001F09541F002097B0F26FE780E0AF8327C7
:106EC8000900AA84C117138707016313E9042685FB
:106ED80097B0F26FE780C0AF61459520AA840DC5D1
:106EE80023003501A3004501B1462286110569201A
:106EF8009C44BDC3484005059920C8C031E5268596
:106F080097A0F26FE78000121F05050000802DA0F2
:106F18009823631437039833631147035840C843D1
:106F280098C71844D8C754401040B920268597B050
:106F3800F26FE780E0A9014564809C4B61B7814509
:106F480017A3F26F6700830E544010403520D840D5
:106F58005C40BA972380070097B0F26FE780C0A51E
:106F680083274900E9D7138704012322E90023A8CE
:106F78002401DCC898C365BFB6851773F26F670034
:106F8800C3AC1F050100008045BF28801F04A8C3AB
:106F98000400E1460146B68522859760F26FE780D6
:106FA800A023A5473EA424809F076CC304008A231E
:106FB800130715009AA382801880014521201080AC
:106FC8006F40F11828812C002A84EF409161A24774
:106FD800B7F6FFDF138706E03E971F06000C000098
:106FE8006369E60232479386F6DFBA96BE96636215
:106FF800D6029F0680C304009CC222859F077CC3DB
:10700800040098C3EF4011609F0784C3040088C33D
:1070180024819305D011254597A0F26FE780800160
:10702800C5BF25732025643A206F616C5F696E7453
:107038005F637265617465207265743A307825788B
:107048000A000000070707060707070707070706DC
:1070580000070707070707070707070707070606C1
:1070680005060606060303060000060606040606CD
:1070780006060400000606060605050506060606B9
:1070880006060606010101060602060606060606AB
:1070980006060006060606060606000603000000A9
:1070B0009B37A5BE1B95A7BE8280AA8798233B0756
:1070C0000720930677FF3BE506053B05072BBB1B17
:1070D000072D85468507014509A88507C5B781465F
:1070E000D5BF5B15A00A8507198D9823130707FDE7
:1070F000BB6CF70A99E23305A04082808146E1BF6C
:10710000788A372900208327C9E02E842AC63ECFFB
:107110002ADCFD578145AA842800B289368ABA8ABA
:107120003EC8BD22D28656870546CE852800792CDA
:1071300001C86257B247998F6657BA97A6971CC085
:10714000FA470327C9E06386E70097E0F26FE7801C
:10715000E061748AFD567D5765B72A88AE86B2878E
:107160006304B504F958B30816033387A540118F9B
:1071700063E6E80017A3F26F6700C3E933C7A50011
:107180000D8B6374B5042A860DC7B297630DF600A4
:107190006F036000E5BF850603C7F6FF0506A30F72
:1071A000E6FE028381E7C286368582806FF3BFFEEA
:1071B000FD17137736007DF7BBE4F7049842F1170B
:1071C0001106232EE6FE9106C5BF19EBB305C500D7
:1071D000369613F73500B307D64001EFBBF9070425
:1071E000F9D3FD173387F60018233306F80018A2E9
:1071F000C5BFFD15E389C6FA8347F6FF7D169CA13E
:10720000C9BFF1173387F60018433306F80018C2D8
:10721000F1B71DC2930615002A9603C7F6FF9C21FD
:1072200019C791C76385C60085066305F700330556
:10723000F74082808505D5B701458280AA8501C9BE
:107240001F05402C002017F3F26F67004340828037
:107250003880868401441DC92A8497F0F26FE78044
:10726000C036BB030501268597F0F26FE780C03575
:10727000A2851F05402C002097F0F26FE780203593
:107280002A8409E597F0F26FE78000342285348084
:1072900058411C596CD5998F3CD91C4581C9B3867E
:1072A000E74063D5D5002E9738D582803CD58280C3
:1072B000388018595C412A84998F3859B384E70083
:1072C0007C5589CF63CCF400544018587D5534D494
:1072D000158FB30797003CD868D4348022852528C1
:1072E000E34405FE7C54138714001444504095C3B6
:1072F000998FB385C64063DEB700B2973CD414586B
:10730000B387C6403E9738D8E3E9C6FCA30FA6FE74
:10731000E9B734D4EDB73881B724002083A7C4E09F
:107320002A843EC6912819C97D55B24703A7C4E0F7
:107330006381E70297E0F26FE78040431C50054607
:107340009305B100228582973B18F5010345B100F2
:10735000E9BF3481188097E0F26FE780204209E9A5
:10736000EF10401E9F0794DE04001B85A7041480C5
:107370001F05D4DE0400E5BF288078452A849307E2
:10738000F7FFD98F7CC5584D5C496386E7005C5197
:1073900001468145829781471CC85CCC5CC81C4073
:1073A00013F7470011C713E5070208C07D55248075
:1073B000139707017D55E34C07FE085858583A9536
:1073C00008C448C01395B7017D85D5B7D8812A84F4
:1073D000AE893289B68CBA8A3BF205253B9305010A
:1073E0000D2ED9471CC161A844402C54638CB404B1
:1073F000938514004CC084203B8CF420938774FF49
:107400003BEAF705938554FDF599014C99E993847E
:1074100034FD93B41400330C9040C92C6387B70239
:107420009D22638E09303B920910BB890430B52838
:1074300063E935077C5463C507005C40FD175CC0F9
:10744000A12879BF552CAA8445BF7D24AA84D1BF29
:10745000712C6389B702052A93E70402BB90177861
:1074600071246384B70205228920BBEA45107C544D
:1074700063C4072C5C40630D0900F9175CC001452B
:107480008145D481952CAA84C1BFBD24AA84E9BFBB
:10749000FD175CC01120E5B781452285D5BB63830C
:1074A00009183B9D390A014939A89F055477119065
:1074B000A6958C3182805B99240B130909FD3D242C
:1074C0006385B70AC920938704FDBBF3070A9F07AA
:1074D00098999919E3F127FF014A938504FD3BF53B
:1074E000150A9F079999991963ED47036317FA00E5
:1074F0009F079999999963E62703A947B306FA026A
:1075000013C5F5FF3307F902B337F902B69793D6DF
:10751000F54113C6F6FF6366F600639BC704637903
:10752000E5041F0B54771190B3059B00593763E1B5
:10753000351B6C5463C505004C40FD154CC0636F92
:107540005A1D63944A01636B991D93F41C00639761
:10755000041A63150C1A752A752A1385FCFFB33CAF
:1075600095019385FAFFE69529BF7922AA84A1BFE8
:107570003309B700333AE900B6973E9A852A638803
:10758000B700112099BF938517004CC051A8AD22B8
:10759000AA84A1B7C1491389F9FF337939019F0D35
:1075A00054771190631D0910DD45B385B9029F071B
:1075B0004A77119095819D89BE9583CB0500B3854F
:1075C0009D00C53D63F63501B7070008636EF904F9
:1075D0005E867D55FD55EFB0B026014A2AC62E8D38
:1075E000B3879D0003CB1700E37D3BF3E36B4DF3C3
:1075F0006315AA01B247E3E627F34A85D2855E8682
:107600009790F26FE78080F25C4038543369AB00AA
:107610002E8A6387E7021387170058C01120C9B765
:1076200084238280A14985BF331979013369B90068
:1076300075286384B700813F59B77D28AA8441B774
:107640006528AA8471BF338929032E994520638553
:10765000B706153FB3859D00A93D63F735019F0728
:10766000C6711C07E3F127FF014AB3859D009831DD
:10767000E37937EB33363903B3864903630B0A00EA
:10768000B387C600B3B7D700B3B54903BE95E39A35
:1076900005E8B296B38729031346F7FF3B9206FF2E
:1076A000E361F6E83389E700333AF900369A3D287A
:1076B0006389B700C93D55BF8120AA8461BF0149D4
:1076C00051BF1D28AA8455B715206384B702653DB4
:1076D000DA948C30E3EA35FF2D282D2893F41C0032
:1076E0006689568AE38704E4014CA1B55C402C54BA
:1076F00082801920AA84E9BF22855DBE63E64A0123
:10770000631E5A0163FC2C01292029206685D68539
:107710008DBB89B19304200204C182809357FC4140
:1077200033492C01B3C54701330589413339A900D9
:107730009D8DB3852541B1B3E31309D4A1BB930754
:107740000003E387F4D0A949DDB100010204070377
:1077500006050000FFFFFFFFFFFFFFFFFFFFFFFF2A
:10776000FFFFFFFFFFFFFFFFFFFFFFFFFFFFFFFF29
:10777000FFFFFFFFFFFFFFFFFFFFFFFFFFFFFFFF19
:10778000FFFFFFFFFF00010203040506070809FFD2
:10779000FFFFFFFFFFFF0A0B0C0D0E0F101112135E
:1077A0001415161718191A1B1C1D1E1F2021222321
:1077B000FFFFFFFFFFFF0A0B0C0D0E0F101112133E
:1077C0001415161718191A1B1C1D1E1F2021222301
:1077D000FFFFFFFFFFFFFFFFFFFFFFFFFFFFFFFFB9
:1077E000FFFFFFFFFFFFFFFFFFFFFFFFFFFFFFFFA9
:1077F000FFFFFFFFFFFFFFFFFFFFFFFFFFFFFFFF99
:10780000FFFFFFFFFFFFFFFFFFFFFFFFFFFFFFFF88
:10781000FFFFFFFFFFFFFFFFFFFFFFFFFFFFFFFF78
:10782000FFFFFFFFFFFFFFFFFFFFFFFFFFFFFFFF68
:10783000FFFFFFFFFFFFFFFFFFFFFFFFFFFFFFFF58
:10784000FFFFFFFFFFFFFFFFFFFFFFFFFFFFFFFF48
:10785000FFFFFFFFFF00000000010202030303031C
:1078600004040404040404040505050505050505D0
:1078700005050505050505050606060606060606B0
:107880000606060606060606060606060606060698
:107890000606060606060606070707070707070780
:1078A0000707070707070707070707070707070768
:1078B0000707070707070707070707070707070758
:1078C0000707070707070707070707070707070748
:1078D0000707070707070707080808080808080830
:1078E0000808080808080808080808080808080818
:1078F0000808080808080808080808080808080808
:1079000008080808080808080808080808080808F7
:1079100008080808080808080808080808080808E7
:1079200008080808080808080808080808080808D7
:1079300008080808080808080808080808080808C7
:1079400008080808080808080808080808080808B7
:1079500008080808080808083881B724002083A709
:10796000C4E02A843EC61DC9280097E0F26FE78074
:1079700040C6224593074400232004001CC45CC079
:1079800097F0F26FE780800B0145B24703A7C4E090
:10799000638AE70097E0F26FE78040DD1F05061C71
:1079A0000002E5B734813881B724002083A7C4E002
:1079B0002A843EC629C1280097E0F26FE78060C1A3
:1079C0001C44130744006394E7022320040001448D
:1079D000224597F0F26FE7806006B24703A7C4E044
:1079E0002285638EE70097E0F26FE78020D81F04BE
:1079F000081C0002F1BF1F04061C0002F9BF3481FD
:107A00001880EF10405F0145148048802A842E8939
:107A100097F0F26FE78000014C4023200400AA8415
:107A200089C9B7A7040003A5874197F0F26FE780E3
:107A300000C281475CC01CC49F075CA304009C4338
:107A4000DC4791E711281F050109000244804A859F
:107A5000829719200145DDBF268517F3F26F670075
:107A6000E3FD8880AA8ACDC21F0A5CA30400832795
:107A70000A00D9CBDC4FC9CBBA89368432892E8B28
:107A80008297AA8451C542091359094163460908DE
:107A900097F0F26FE78000F99C402A898DEF80C053
:107AA00063800904B7A7040003A58741B14597F097
:107AB000F26FE780C0B12A8419C53146CE85979010
:107AC000F26FE7802055C0C001EC15281F040309A0
:107AD0000002228584802D201F0404090002D5BFE6
:107AE000392883270A0001449C4BE5D7DA8556855F
:107AF00082972A8479DDD6852685013FD9BF4A85BC
:107B000017F3F26F670083F31F0401090002D1B776
:107B10001F040009000275BF1F040909000255BFB8
:107B200028809F075CA304009C432A8481CBDC4F00
:107B300091C7829701C9A2852080C1BD1F05010997
:107B4000000224801F0500090002E5BF9F075CA317
:107B500004009C4381C79C4791C382871F0501098C
:107B6000000282809F075CA304009C4381C7DC471E
:107B700091C382871F050109000282809F075CA3D1
:107B800004009C4381C79C4B91C382871F05010958
:107B9000000282801880AA8711C997F0F26FE780EF
:107BA0004080AA873B0205FF930715003E851080A1
:107BB0006F00D06C9F0764A3040098439F0668A3DE
:107BC0000400D4C294C28145230707009C420CCB19
:107BD0008505D0431CC350C3D04318C2D8C3510736
:107BE0003B9AF51401458280288021C92A8497F0A8
:107BF000F26FE78020E31F0768A304005C43639AE9
:107C0000E70097F0F26FE78060E31F05031D0002B5
:107C10002480D443984398C2984354C3014785466F
:107C2000DAA7F4A798C7DCC39CC39C4B1CC097F091
:107C3000F26FE780A0E00145E1BF1F05021D0002D1
:107C4000C1BF2880BB7615149F0764A3040080433E
:107C50005B14A41497F0F26FE780C0DC7C2485CB22
:107C60005C40631AF4025E249DE77CA49F0768A32E
:107C700004009C43D8431CC058C0D84300C3C0C3B1
:107C8000014497F0F26FE78060DB228524801F04B7
:107C9000011D0002FDB71F04091D0002DDB71F040E
:107CA000011D0002DDB72880378411901305A4CC94
:107CB0009790F26FE7808045AA8505461305A4CC0E
:107CC000208017A3F26F6700E3C54F757470757459
:107CD00020696C6C6567616C20737472696E6721D2
:107CE0002076736E7072696E74665F732066616968
:107CF0006C6564210A004F73567072696E74662C4D
:107D0000206D616C6C6F63206661696C6564210A2B
:107D100000009F07A8A3040098439F06A0A30400A7
:107D2000D4C294C2130707028145230207FE9C4276
:107D30002326B7FE8505D0431CC350C3D04318C2C9
:107D4000D8C3130707033B99F50A01458280788061
:107D500055CEE9C161C393064700B3B7D502DDEF45
:107D6000AE84B385D502B7AA040003A5CA41BA8977
:107D7000328997F0F26FE78080852A8A45C597F0AF
:107D8000F26FE78020CA9F07A0A30400C0436311DD
:107D9000F40297F0F26FE78060CA03A5CA41D2856A
:107DA00097F0F26FE780A08A1F0504060002748036
:107DB0001C4054409CC21C40D4C385472302F4FE9F
:107DC000930784FF232EF4FE232CF4FE93078400F4
:107DD0005CC41CC4231394FE231434FF232044FFEB
:107DE000A30204FE231A04FE231B94FE231804FEA0
:107DF000231904FE40C000C097F0F26FE78000C472
:107E00008327C4FE01452320F90055B71F050C0642
:107E1000000271BF1F050D06000251BF1F050306BA
:107E2000000271B71F050206000251B75880BB78E7
:107E3000250A9F07A8A3040080435B14A43097F091
:107E4000F26FE78020BE5C20AA89BDC75C4C130797
:107E500084016397E7065C50930404026392F4067E
:107E60005C5413078402639DE7045A287E28BA975E
:107E70007A20639BE7045C30014999EBB7A70400C3
:107E80000C4003A5C74197E0F26FE780407C2A8948
:107E900081475CA01CC09F07A0A304009C43D8435B
:107EA0001CD058D0D84304C3C4C34E8597F0F26F9A
:107EB000E780C0B84A8554801F090A060002F5B75A
:107EC0001F0908060002D5B71F090B060002F1BF03
:107ED0001F0905060002F9BF5880E5C5BB7B350ABE
:107EE0002E842A8913068002814522859790F26F9D
:107EF000E78040139F07A8A30400844397F0F26F24
:107F0000E78040B2AA89DB942431DC20DDC7FE2063
:107F10002320240103A9C4015EA09E247EA09E28E4
:107F20001EA4BE283EA4DE287EA4FE285EA449200E
:107F3000138784016398E70203A9440295281387F5
:107F40000402639BE70203A9C4029D2013878402F5
:107F5000639EE70201444E8597F0F26FE78000AE22
:107F60002285548035281C48032909035D8D5C480F
:107F700008C8DD8D4CC865BF25201C4C03290903AA
:107F80005D8D5C4C08CCDD8D4CCC4DBF11281C5058
:107F9000032909035D8D5C5008D0DD8D4CD075B789
:107FA00003264901054581451783F26F6700035891
:107FB000130949FD9307C90282801F040A060002C3
:107FC00059BF1F041706000261BF1F040E060002FE
:107FD00041BF488029CE32842E89AA8497F0F26F5F
:107FE000E78040A41F07B0A304005C43639AE70046
:107FF00097F0F26FE78080A41F050307000244801A
:108000009843D44398C2984354C30547238CE7FE52
:10801000A38C27FF239D97FEDCC39CC383A7C7FFC8
:108020001CC097F0F26FE78060A10145C9BF1F0532
:1080300002070002E9B79F07ACA3040098439F061C
:10804000B0A30400D4C294C221078145230C07FECB
:108050009C42232EB7FE8505D0431CC350C3D0439A
:1080600018C2D8C34107BB99F50A01458280C16790
:10807000FD172E866304F5008145A1BF1F05080783
:10808000000282802E863B720502854599B71F0546
:1080900008070002828028803B77150A9F07ACA35F
:1080A000040080431B04A40897F0F26FE7808097D8
:1080B0001C208DCB5C44130784006319F702230056
:1080C00004009F07B0A304009C43D4431CC454C4C1
:1080D000D443014498C2D8C397F0F26FE78000966A
:1080E000228524801F0401070002FDB71F04090731
:1080F0000002DDB71F0401070002DDB70CC1CCC1CF
:108100008CC182809C411F07CCCCCCCC6393E7020E
:10811000910563E7A5000D8D19E908C2014582802C
:108120009C411F07CACACACAE384E7FEEDB711051E
:10813000EDB7FD571CC205458280488237290020D3
:108140008327C9E09F06C4A30400D4C23ECE9F0784
:10815000C0A304009C4394C20146984292AB05061A
:108160004C4398C3219ECCC34C439CC15CC39387B2
:1081700047023B1AF62881473EC49F07D65F04009A
:108180003EC29F07000800003EC81F0470A3040001
:108190009F074084119001483ECA50C893070010C1
:1081A0004C000A8542C63ECC7927AA840DED37A73C
:1081B000040082470327073E9F05CCA304001CD47C
:1081C000DB17F75C9847130584001367270098C7EF
:1081D0003537F2470327C9E02685638AE70097D041
:1081E000F26FE780A0589F040C030002DDB74482C1
:1081F00028807C252A848DE75C3589C7F917819F03
:108200003BF807021C4C37A504001CC4A2851305CB
:10821000853797E0F26FE78060CE8D475CA42480BD
:108220005C48D5B788803DC93BFF150341C2D9C220
:10823000BA8A368AB2892E8B2A8997E0F26FE78054
:10824000607E9F07C4A30400C043631AF40097E054
:10825000F26FE780A07E1F05040300028480444083
:108260001C409CC01C40C4C3814444C004C097E06F
:10827000F26FE780A07C89475CA41E28232034038A
:10828000A306640164A4232A2401232C2401232EA1
:10829000540104C42310FA000145C9B71F050103A6
:1082A00000026DBF1F05020300024DBF1F05000342
:1082B00000026DB71F05030300024DB748802A84F2
:1082C000AE8497E0F26FE780E0752A89228597E017
:1082D000F26FE780A0E12A8419E515201F04050349
:1082E0000002228544805C25BB8E07023BE1170219
:1082F0003B8607031F040E0300021120DDB74A85E9
:1083000017E3F26F67008373AA8537A5040013058E
:10831000853797E0F26FE78000C289475CA42307A6
:10832000040099C044C804CC2285D9350144F1B772
:108330001F0406030002D1B70146814541B73880CA
:108340002A8497E0F26FE780E06DAA84228597E0A7
:10835000F26FE780A0D92A8419E535201F040503B0
:108360000002228534805C253B850702BBE01702B2
:108370003B8807031F040E03000221A01F040D0306
:1083800000021120F9BF268517E3F26F6700036B27
:10839000AA8537A504001305853797E0F26FE780BB
:1083A00080B989475CA4230704000144D9BF1F0496
:1083B00006030002F9B748802A8497E0F26FE7804D
:1083C00060662A89228597E0F26FE78020D22A84AE
:1083D00019E515209F0405030002268544805C25CD
:1083E000BB8D07023BE517023B8607039F040E0384
:1083F00000021120DDB74A8517E3F26F67000364BE
:10840000AA8537A504001305853797E0F26FE7804A
:1084100080B22307040085475CA47C348144F1FBCF
:108420009F07C4A304009C43D8431CC058C0D84332
:1084300000C3C0C344A475BF9F040603000255BF18
:108440005377745F5461736B00009F07E4A30400CB
:1084500023A007000145828028809F07ECA3040029
:108460009CC3DCC39F07E0A3040098439F06D8A3E6
:108470000400D4C294C21307C70201448547231CD9
:10848000F7FC9C42232487FE0504D0431CC350C341
:10849000D04318C2D8C31307C705BB18F40FEF00A9
:1084A000F01E9F05F8A304001F0570A30400B93156
:1084B0009F07E8A3040080C30145248028801C4551
:1084C0002A8463CB0700B7A704000C4903A5C74162
:1084D00097E0F26FE780A0179F07D8A30400D4436A
:1084E000232804001307C40214D85CD498C2D8C34C
:1084F00024803881B724002083A7C4E028003EC62A
:1085000097D0F26FE780E00C9F07ECA30400C04314
:108510006310F402224597E0F26FE7802052B247E1
:1085200003A7C4E0638FE70097D0F26FE7800024D1
:10853000228597E0F26FE780C0BC130544FDBD3F84
:10854000E1B73481B7C7040083A7879F99C3C84B9D
:1085500082801F05070200028280B7C7040083A73C
:10856000879F014591C3885782807881B72A002070
:1085700083A7CAE0AA892E843EC6630505166387D1
:1085800005169C49638807169C4163890716DE21FE
:108590003BFD5720B7A7040003AAC741DC4589E784
:1085A0009F0700080000DCC54444528597E0F26F45
:1085B000E780000F636C95144844952848C4AA844A
:1085C00013050020AD2063E7A4145C441307F010EA
:1085D0006372F71495201F09D8A30400832449006F
:1085E000638A240F938744FDF5CB268597E0F26FCD
:1085F000E78020B105284C445285414697E0F26F50
:10860000E78060012A8A15ED05288327490023A009
:1086100024011F0400020003DCC084C3232299004C
:10862000112079A8224517E3F26F67002341C14565
:1086300017D3F26F6700A31F280017D3F26F6700EC
:1086400043F92A864C4403A584FEEF0030511C44B4
:10865000184023AAA4FC23ACF4FE5C4423A244FFEC
:1086600023A804FE23A0F4FE5E2023A6E4FE1387C5
:108670008401D8CC98CC1848239DF4FC8147DCD4E5
:10868000DCC89CD09CD4854723AEF4FC23AA04FE0E
:1086900023AEE4FE9307000081CFB7C7040083A791
:1086A000879F03A584FECC4B97000000E7000000E5
:1086B0008947239CF4FC83A784FE014423A0F9008E
:1086C000B24703A7CAE02285638AE70497D0F26F16
:1086D000E780C0091F041102000299B71F040102BC
:1086E00000023DBF1F0407020002D9BF1F040102A0
:1086F0000002F9B71F0405020002D9B71F040402E3
:1087000000027DBF1F04030200025DBF1F042002A0
:1087100000027DB71F04060200025DB77481488124
:108720009F04E0A304003729002080408327C9E08C
:108730005B14A45C3EC61C44898B6391071228001D
:1087400097D0F26FE780E0E8CD2813F717006313A6
:10875000071013F7070115C39F0770A30400985370
:1087600029C70547D8D71F040B02000311205DA0BD
:10877000224517E3F26F6700632C13F747004DC7DC
:108780001305C40297E0F26FE78000F67D20ED9BB1
:108790005EA0652093F7070A91C7228597E0F26FE4
:1087A000E780209A5928F59B5EA0412813E6170020
:1087B0007D5752A038C023260404C18BD1C71C4466
:1087C00063CE07009F07ECA304009C431307C40279
:1087D000D4435CD414D8D44398C2D8C39F07E8A329
:1087E000040098409C43DB17F75C5848D2A3D8CBD1
:1087F000184898CB185498D785475EA097D0F26F49
:10880000E780C0F70DCD9F0770A304000947D8D7B4
:1088100085370144B2470327C9E022856384E70412
:1088200097D0F26FE78080F4A18BA5D71305C4021F
:1088300097E0F26FE780E08CA9BF5E20828097E02E
:10884000F26FE780A0F3E9B785475EA02285BD31CE
:10885000014429BF1F040A02000209BF1F041402B9
:1088600000024DBF44819F07E8A304009C4363744A
:10887000F50081456DB51F05070200028280488121
:10888000372900208327C9E03EC69F07E8A30400DC
:108890009C43637DF5089F07E0A3040080435B14BD
:1088A000A45C280097D0F26FE780A0D25E20A2449B
:1088B00013F7170025E713F727002DC713F7D7FF86
:1088C00093F78702219F91CB5AA0014411202DA834
:1088D000268517E3F26F670063166E201367470063
:1088E0005AA005461305C40297E0F26FE780E0DB6B
:1088F000C5379F07F4A304009C430144858B89C7B7
:1089000097D0F26FE780A0CDB2470327C9E0228558
:108910006382E70297D0F26FE78040E51F040A0206
:1089200000026DB71F04090200024DB71F040702C1
:108930000002D9BF448128802A84053901E5084016
:10894000208035BF24802882372400208327C4E07C
:1089500023270100232B01003ECE9F07466204001F
:108960003EC2930700603EC837A504009F070A8CEB
:1089700011903ECA4C00FD471305C5382325010060
:10898000231D01002314F1007D3719ED9F0770A30B
:1089900004001F07E0A304001843DC4FDB17F75C5B
:1089A00098471367270098C7F2470327C4E06386F8
:1089B000E70097D0F26FE78060DB24825881B72907
:1089C000002083A7C9E0AE843EC63BF625209F0762
:1089D000E8A304009C43637AF5089F07E0A3040022
:1089E00080435B14A45C1C44898BC1E7280097D0AA
:1089F000F26FE78000BE5E2013F7170031EF13F728
:108A0000470031C71309C4024A8597E0F26FE78037
:108A1000A0CD054666A0A6854A8597E0F26FE7805F
:108A2000C0C805448144224597E0F26FE780000109
:108A300009C497D0F26FE78080BAB24703A7C9E0B4
:108A40002685638CE70297D0F26FE78020D291836E
:108A500066A013F41700F9B701449F040A0200024C
:108A6000D9B79F0403020002C9BF9F040702000296
:108A7000E9B79F0414020002C9B75481488137291D
:108A800000208327C9E0AA843EC697D0F26FE78012
:108A9000E0CE2DE5B7C7040003A4879F1C44898B53
:108AA000B5E397D0F26FE780E0662DC191EC97D0E7
:108AB000F26FE780407EB2470327C9E0638CE7048A
:108AC00097D0F26FE78080CA280097D0F26FE780D6
:108AD00040B0A685228597D0F26FE780A0655E2022
:108AE00093E707025EA097E0F26FE78020C9224576
:108AF00097E0F26FE78080F4014575BF1F050D0216
:108B0000000355BF1F051402000275B71F050E02B2
:108B1000000255B744815881B729002083A7C9E0D6
:108B20002A892E843EC6F9C59F07E8A304009C430A
:108B30006376F50C9F07E0A304008443DB94A45CF8
:108B4000280097D0F26FE780C0A8DE2013F7170047
:108B500011CF61281F050A020002B24703A7C9E02E
:108B60006382E70A97D0F26FE78040C0C18BBDE710
:108B70009C407CC4DE203146938504045EB0FE2018
:108B8000130504037EB0DC443CC09C487CC0978045
:108B9000F26FE7802048FC449054FD465CDCDC4CDE
:108BA0009305000222851CD49C50232024035CD40E
:108BB0009760F26FE78000ADDC4488486C40130694
:108BC00044053E957C44419928C4B307F5403CC810
:108BD000EFF04FD328CC1128014541B797D0F26F61
:108BE000E780C0B951F58A8769B7224517E3F26F6C
:108BF0006700C3E41F050102000285B71F050702D5
:108C00000002A1BF54810145828049646C65436FB5
:108C100072653030300018809F0700A404009C4328
:108C20001307703E6378F70097C0F26FE780C011BA
:108C3000014514801F0500040002E5BF38802A8426
:108C400015CDAE842E8681459780F26FE780803DFA
:108C5000938744FF18481CC49385C4FE9D579BC549
:108C6000F5CAB7070080F98F9306C400CD8F14C0F2
:108C7000232604001CC854C0054534800145F5BFB7
:108C800041112A8722C626C4054505C79DC15C43FC
:108C9000014881440144B1468DE31C47054563EA20
:108CA000D700958F94C180C5DCC123A6050184C976
:108CB00001453244A24441018280D043370500403F
:108CC0007D1593181600718D63D70800A106AA962A
:108CD00005089C43D1B76373A4002A848504D5BFDB
:108CE0004E6F206D656D20746F20616C6C6F63201A
:108CF0003078257820427974657320617420706F14
:108D00006F6C5F616464723D30782578210A0030B1
:108D100078256C78206F7574206F662072616E679D
:108D200065210A004881372900208327C9E0AA84E9
:108D30002E843EC605459DCC3BEF0515B3E7B40038
:108D40008D8B89CF1F05528E11909790F26FE7801F
:108D500020C193053400F1991384C5FF280097D0F2
:108D6000F26FE7800087A2852685C93DA24701ED05
:108D700031280545B2470327C9E0638EE70097D045
:108D8000F26FE780A09E19200145EDB73E8517E3FD
:108D9000F26F6700A3CA4481054669B728801F04A3
:108DA0001CA404009F05C0D2000008C0F5371C4079
:108DB0001F0718A404001CC324805882B729002070
:108DC00083A7C9E02A892E843ECE854415C18DC172
:108DD000480097C0F26FE780C07F2C004A854D3570
:108DE000AA84124585C097E0F26FE78020C58544CC
:108DF000F24703A7C9E026856386E70297D0F26FA2
:108E0000E780C096A24744C81CC0B2475CC0C247B6
:108E10001CC4D2475CC4E2471CC897E0F26FE780ED
:108E2000E0C1F9B7548282806661696C20746F205A
:108E300066726565206D656D6F72792C20706F6F3D
:108E40006C3D5B25705D2C206D656D3D5B25705D17
:108E50000A00706F6F6C2073697A6520307825780E
:108E60002073686F756C6420626520616C69676E41
:108E700065642077697468204F535F4D454D5F41AD
:108E80004C49474E5F53495A450A00009F0724A4A6
:108E900004000147DCC39CC30507A1073B1EF72064
:108EA00082801F051E90119082803B7B055A85476A
:108EB000B397A70015813B0405013B050502F3B7F5
:108EC000473001458280BE8273B002BEDDBFBE82E4
:108ED00073B012BEFDB71F050009000282803B7B04
:108EE000055A8547B397A70015813B0405013B054B
:108EF0000502F3A7473001458280BE8273A002BEFF
:108F0000DDBFBE8273A012BEFDB71F0500090002BF
:108F100082801880AA873B74355A3BF53507014596
:108F2000BBE3171A9917939627001D478D830D8F62
:108F3000FD171376F70F3BF707073E8513F7C601BA
:108F4000BD4797E0F26FE78000A426364452606E7A
:108F50007C00F32700BC3D473317D7001347F7FFCA
:108F6000F98F3317D6005D8FBA82739002BC1480DC
:108F7000F32610BC8520BE82739012BC0145C5BF8C
:108F8000F32620BC8128BE82739022BCC5BFF32685
:108F900030BC8920BE82739032BCCDB7F32640BC72
:108FA0001528BE82739042BCD1BFF32650BC1D2051
:108FB000BE82739052BCD9B7F32660BC2128BE8212
:108FC000739062BC65BFF32670BC2920BE8273908B
:108FD00072BC6DB7B397E70093C7F7FFF58F3317F0
:108FE000E600D98F82801F050009000249B71F05DE
:108FF00005090002ADBF9F07ACB50400694723AC6B
:10900000071223AE07120507B1073B1DF75AB7A792
:1090100004001F072490119023AEE7348280504C47
:10902000494300000000000068690400DE8E1190D2
:10903000AA8E1190128F119030690400A28E1190A7
:10904000386904004C6904000145828028802A8424
:1090500097E0F26FE780009D9F07101E002080C3FD
:1090600097E0F26FE780809D0145248048811F04CE
:10907000E4B904005E242A89AE84BBE237028D473E
:109080001EA0FD571CC49C442311240104C85CC0CD
:10909000EFF0AFCC1E205A2436201044AA851F05BD
:1090A000E29111909790F26FE780808B00488328BF
:1090B000C408032844011C485844144450400C4040
:1090C000484C65201F051692119055208328C4072F
:1090D000032884047C4403270408832644080326C9
:1090E00084080C4C285C51201F0569921190412086
:1090F00083284404032804067C50385474543058A0
:109100006C5828409D201F05AA9211908D2083281D
:109110004402032884025C5418585458105C4C5C78
:109120000850A1201F05EB921190912038487448F7
:10913000304C6C4C1F052E93119040811793F26FA9
:1091400067000382B7A7040083A7473F858B8DDBA9
:1091500097C0F26FE780806219C1894715B78547CC
:109160001EA0EFF02FBE08C439BF2AC0828017832B
:10917000F26F6700E37E18809F07E4B90400DE27E2
:10918000BB9407019F07101E00209C4391C3829748
:1091900001A0E93DF5BF0F00F00FB717020023ACA7
:1091A00007C08280388044412A841F057895119039
:1091B0009780F26FE780C07AF93FA28526857D35DA
:1091C00001A028802A8497E0F26FE780A0859F079E
:1091D000141E002080C397E0F26FE78020860145CF
:1091E00024807461736B3A25730A746872645069E1
:1091F000643A307825780A747970653A3078257841
:109200000A6E657374436E743A25750A70686173EB
:10921000653A25750A006363617573653A30782590
:10922000780A6D63617573653A307825780A6D74D4
:1092300076616C3A307825780A67703A307825780C
:109240000A6D7374617475733A307825780A6D65A8
:1092500070633A307825780A72613A307825780A56
:1092600073703A307825780A0074703A307825782F
:109270000A74303A307825780A74313A3078257893
:109280000A74323A307825780A73303A3078257883
:109290000A73313A307825780A61303A3078257887
:1092A0000A61313A307825780A0061323A307825FF
:1092B000780A61333A307825780A61343A30782573
:1092C000780A61353A307825780A61363A3078255F
:1092D000780A61373A307825780A73323A3078253F
:1092E000780A73333A307825780A0073343A307844
:1092F00025780A73353A307825780A73363A30780B
:1093000025780A73373A307825780A73383A3078F6
:1093100025780A73393A307825780A7331303A3033
:109320007825780A7331313A307825780A00743319
:109330003A307825780A74343A307825780A7435CA
:109340003A307825780A74363A307825780A000061
:10935000188097D0F26FE780E06C01A048803284DB
:109360002E892E86AA849F05CACACACA22859780DA
:10937000F26FE78020CB9F07CCCCCCCC130509EF54
:1093800022951CC09F07020202021CC5130785001C
:109390009306C5101C431F06010101011107B29776
:1093A0001CC3E319D7FE9F07807800001CC19F07EC
:1093B000566204005CC19F07509311902320051052
:1093C00064D57CDD44800000000000000000000047
:1093D000732500349792EE8F938202A483A2020039
:1093E00082927321003489629382028073A00230DA
:1093F00083220111739032009302010987AD0200AC
:1094000007AD420087AC820007ACC20087AB020107
:1094100007AB420187AA820107AAC20187A90202FB
:1094200007A9420287A4820207A4C20287AF0203EF
:1094300007AF420387AE820307AEC20387A80204C8
:1094400007A8420487A7820407A7C20487A60205CB
:1094500007A6420587A5820507A5C20587A30206C0
:1094600007A3420687A2820607A2C20687A10207B7
:1094700007A1420787A0820707A0C207C2427390D4
:109480000230D2427390123405610B06E17F4561D0
:109490008B0FF1FF216173002030130000000100E9
:1094A0009722F36F938242540393C2006316030022
:1094B0001781EE8F130101B5050323966200370370
:1094C0000040B3736A0063840300C14231A83703CC
:1094D0000080B3736A0063840300C54231A0B70201
:1094E0000080FD12B3F259001685F325003497026F
:1094F0000000938282C8829201A000000000000058
:10950000930201010B96E27F9302010827A0B201AA
:1095100027A2A20127A4920127A6820127A87201EF
:1095200027AA620127AC520127AE420127A03203CD
:1095300027A2220327A4920227A682024111732A9E
:1095400020FC52C0F32920344EC2732930344AC45F
:109550000EC6F324003026C87324103422CA12CC5D
:109560000ACE7310013491C111A01DBF1781EE8F77
:10957000130141C9B1BDDDBC4F6F70733A4E4D4907
:089580000A00000000000000D9
:1095880048802A8997D0EF6FE78020B22A8419E4AF
:109598004A85408017D3EF6F6700E3B12285044006
:1095A8009710F36FE78060D611E5228597F0EF6F8B
:1095B800E780A0BF2684E1BF372504001305858313
:1095C800C1B718809F077CC5040088C3014781463E
:1095D80001469F054C9C040013051004EFD06FDD75
:1095E8009F074C70119083C5170413051004EFD022
:1095F8000FE01305100410806FD0EFDD18801305FD
:109608001004EFD00FDE81451305100410806FD0D1
:109618002FDC18809F077CC50400C8C3014781461A
:1096280001469F055C9C040013052004EFD06FD809
:109638009F074C70119083C5270413052004EFD0B1
:109648000FDB1305200410806FD0EFD818801305A6
:109658002004EFD00FD981451305200410806FD066
:109668002FD79F0778C50400239007009F0774C56C
:10967800040023A00700828068807C312A84AE849D
:1096880099C3FD177CB103290400131A0901135A61
:109698000A0152859770F26FE780C0279E24AA8935
:1096A800231AF5088357250C85072311F50C8C40E0
:1096B8005285EFA037441F063E000B00CA854A8535
:1096C8009780F06FE780A08583C7E90489E73D2884
:1096D8008920014564809A2483D7490A998F03C752
:1096E800B905A19FB3E7E70281EF83C7E9143B936C
:1096F800070183C75915BBF207074E85EFD0E10A6A
:10970800312001284E85EFE0F115E1B74E856FB0A5
:10971800875508401773F26F6700430E03476515B6
:10972800BB76070FB7C71890938707059B87E70491
:109738009C4382878547A30AF51482808947E5BF41
:109748008D47D5BF9147C5BF9547F5B79947E5B749
:109758009D47D5B7A147C5B768821C412A849F0495
:109768009C0404003EC49770F26FE780A0FB482C6D
:109778006D699770F26FE7806003A247BB17050217
:109788003EC670001385840755282A8421E1977006
:10979800F26FE780A0F901456482938904023EC80C
:1097A80010084E8561282A847DD14E85224A97D09B
:1097B800EF6FE78000901A2C54442A86D2851F0543
:1097C80034CC80299770F26FE78040E902CA02CC56
:1097D80002CE34001306A95D4C081385C4028D28F7
:1097E80013858403952013854404B9289770F26F74
:1097F800E780C0F348089700F36FE78000A40844A7
:1098080097F0EF6FE780609A22859700F36FE78003
:10981800209F9720F06FE78020FA9720F06FE7806D
:1098280020C91385040297D0EF6FE78080883B7AC0
:10983800D50381450545EF40C17CB1BF9305A95DBE
:1098480017D3EF6F6700C3A834001306A95D4C084F
:1098580017D3EF6F670003A181471F0770CA040081
:10986800B306F7002380061A85073B9CF70DA3066D
:10987800071A82805880832905002A89AE841395A7
:10988800090141819730F06FE780C01D9624904010
:10989800939509012A84C1811F0533EE802A9770A8
:1098A800F26FE780A0DB9770F26FE780A0E783474D
:1098B80079004A3483554406B9CBFD15A19D97C05C
:1098C800EF6FE78040068357440685072312F406A6
:1098D8009C403CD0854522859720F06FE780405416
:1098E8008347E402BB93070122859720F06FE78046
:1098F80020362285EF90816F9770F26FE78000E342
:1099080022859720F06FE780E040014554809C4015
:109918003CD0938715002312F40697C0EF6FE780B9
:1099280080004DBF28802E849770F26FE78000F981
:10993800B717040083D76719370741599305C4FF40
:109948003E975E3560C1A19DDB17F7C0AEAF8EAF05
:109958002480688206062A8493140601B68913991E
:1099680015009770F26FE780E0DB22859730F06F83
:10997800E780400F8347E5022A84C18068413B9312
:1099880057018357E40503574406130A204EB38949
:1099980049031D8F219F8357C4058345240523143C
:1099A800F1003305A702384C231134052695FD54E0
:1099B8002A979580658F3AC29770F26FE78000BF4B
:1099C8001306050183552404684006069720F06FA6
:1099D800E780E02431C13357450383572404AA970D
:1099E8002311F40492470581998F130710273375C3
:1099F800E50203578100E58F3EC26379A700FD1792
:109A0800E58F130717273EC22314E100835781000F
:109A18003385A7402314A100835624040356440623
:109A28004C00938706FE2310F404B717040003D7ED
:109A380067195E3422855B17F7C0B7074159BA9793
:109A48009E2B0357E405A1833307E640FD8BB387BC
:109A5800E7020347E406BA9713075002B3F7E70291
:109A68002307F4069730F06FE780608812464E347B
:109A780003572404835681001F05349E812A97705A
:109A8800F26FE780A0BD92461C54A309040433F783
:109A9800260323A427016800D8CB1C4036CA4AC82D
:109AA8003EC683578100231CF10083574406231DBB
:109AB800F1008547230EF1009770F26FE78000D61A
:109AC8009770F26FE78080C664823C500156231479
:109AD8000100AA97A6979BC7C7CA3EC241BF3B04CD
:109AE80005023B620502BB6305050145828013053B
:109AF800300482801305C0038280188097F0F16FCC
:109B0800E78020E29720F26FE780C0E410801763B7
:109B1800F16F6700430418809770F26FE78000AA1E
:109B2800E93F10801773F16F670003EA99E1930525
:109B380000108D816FA03005B727040083A7478CDC
:109B480081469C439C5311C91307D00E994663065E
:109B5800E500954619A083A787FF91CBE39DB7FE43
:109B6800014685453E851773F16F670043F3828090
:109B780038811306F1009305E100AA840045EFC07F
:109B8800C47201C9814526859710F26FE78080ABC2
:109B9800348118508347F1001377070401EBEDDB9C
:109BA80026859710F26FE780E0D2DDB7F5F3CDBFD9
:109BB8007881004583477402444018503B9507025A
:109BC800936707201CD09710F26FE78080F97481A3
:109BD800936707401CD0BC38B42CF58F858B81C7A0
:109BE800936707601CD0A928C18B89C71C5093E7CD
:109BF80007021CD0B120A18BA1CB22859700F26F60
:109C0800E780801569D51C50138A0401938A740172
:109C180093E787001CD0D68552859700F26FE780BE
:109C2800E0AA2380A406930710086309F500BB7A0D
:109C380005823B77E5021C50DD9B1CD022850DA8D0
:109C4800BC38B82CF98F82801C5093F70704C5FFE5
:109C58008D472303F40245BF93072008630CF502E0
:109C680093073008E315F5F61C502285C18B91C780
:109C78009700F26FE780800799BF9700F26FE7803F
:109C8800609DB727040083A7478D2A8681459C439A
:109C9800A52035BF22859700F26FE780A09B1C5056
:109CA800AA89D68513D967005285134919001379F3
:109CB80019009700F26FE780209F372A0400631984
:109CC800A904EFC0C46C15CDEFC0A46D2AC6914697
:109CD8007000C14526859740F26FE78000D7C146DE
:109CE80026869945138589009720F26FE78060F1F1
:109CF8001D208545112099B7884F1703F26F67001B
:109D0800A394D14526859730F26FE7804004C1BF00
:109D180019208945B5BF83274A8D4E869C4382808A
:109D28005884BB02064129473A8554842A84444111
:109D38002E852E899770F26FE780C0386DD593898C
:109D4800240C13060004CE854A859770F26FE780CD
:109D5800602B71D9930600044A86B6854E859740D4
:109D6800F26FE78080CE1307100F5DFD9F07BE835B
:109D7800605A3ED09F07DB0B37603ED29F0738A55D
:109D8800F5AA3ED49F079183886C3ED602D802DAA2
:109D980002DC02DEEFD043340A86CA859770F26F80
:109DA800E780C031130600020147938624068A859E
:109DB8003305C1009730F26FE78000191C50414706
:109DC8001BA7E7F218D00D472303E4029396B700C8
:109DD8000147E3CB06F493F7070499E7A6852285A4
:109DE8009700F26FE78020F4A68522859700F26F2E
:109DF800E78000E301470DBF28803284EFD0832E2F
:109E0800930600042A86B685228520801743F26FC0
:109E18006700A3C348825C452A84C44B1C51A18BAC
:109E280089C79C3093E727009CB01C50C18B89C719
:109E38009C3093E717009CB0130560049760F26F9D
:109E4800E780407E2A89484419462C00130585037B
:109E580002C4231601009770F26FE780A01A01ED83
:109E68009F05CBAA0E271F057E01B3009770F26FDE
:109E7800E780C01544825044A1464A8513068603EC
:109E88009D285C449306E003268683C7E7041305F0
:109E98008900A303F90085209C3013F7070409E71C
:109EA800E207E18763D90702B717040083A787167B
:109EB800A1CBC1453305B10097F0F16FE780C049E8
:109EC8004147B306E1003A86930569024A859770CF
:109ED800F26FE78020F54844EF80445DB72704001F
:109EE80083A7478D4A8691459C43884F97F0F16F29
:109EF800E780807541B7B6851743F26F6700E3B412
:109F0800C1460146B6853305D1009730F26FE78028
:109F1800A02C7DB778802A8AAE84630C0512B72AF4
:109F2800040003A74A8DD2851C4323AE070A0843C1
:109F380021059720F26FE78040F403248A00054743
:109F48005C448329440003A947011C5093F7070484
:109F580091C32D472303E402C1E881446399090AA8
:109F6800834704021CD0638909004E859760F26F0D
:109F7800E780C06A232204001C4499C713058400A3
:109F88009770F26FE780001999E4D28522859700CF
:109F9800F26FE7800008A68552859700F26FE78088
:109FA800C05B13058AFF9760F26FE780206793070D
:109FB800000F6380F40A83A74A8DA28588439720FF
:109FC800F26FE78080E051C51C5071777D17F98FDB
:109FD8001CD022859700F26FE780C0412DC57080A4
:109FE8001713F26F6700A31D1F057E01B3002686B5
:109FF8009F050BAA0EE79770F26FE780A0FD014559
:10A0080097F0F16FE780405A3B96D405B9B7E3095A
:10A0180009F483441900A9D41C5093F7072099E741
:10A028008347090093E707042300F9002285970076
:10A03800F26FE780805783470900814493F7F7FB65
:10A048002300F90031BF228570801703F26F670083
:10A05800A3037480988104459C50858B89E783C746
:10A068007402BB981702AA89268583AA4400970020
:10A07800F26FE78080E82A84412AA9E79C509983F7
:10A0880093C71700858BD69703C9C701630C0902CC
:10A0980009459760F26FE780E0588946B685014622
:10A0A8002A8B9730F26FE78020135A85C145973085
:10A0B800F26FE780C0C989465A863305D4002D223D
:10A0C80019C1912A948193771900ADCB9C50C18B0B
:10A0D800B5E71945392A02C002C202C402C61020D7
:10A0E80005478A862A8ADA853A9597E0F26FE780EB
:10A0F8004035C1460A861305E402FD200122AD451C
:10A108001D45CD28930B35002A8A930500045E85EA
:10A118009730F26FE780A0C3014713061A008A86BA
:10A12800DA855E8597E0F26FE780C036C128E928B6
:10A1380093E73700E92893E747001CB09377290095
:10A14800BDC321457D202A8AC145050597F0F16FD9
:10A15800E78080206520A145254569283727040028
:10A168008327478D99462A8A9C43B685090583C764
:10A178002702A30FF5FE8327478D90437106B5206C
:10A1880019C99F050BAA16CD1F057E01B30097704C
:10A19800F26FE780A0E39D20852893E7C700852814
:10A1A80093E707041CB0137949006308090223AE3A
:10A1B8000400C54529453D282A89C1455A86050513
:10A1C80097F0F16FE7802015CA851528352893E7A1
:10A1D8000701352893E707011CB035284E859700FD
:10A1E800F26FE7800065F9BDB6851743F26F670027
:10A1F800C385C54517F3F16F6700835CD285268553
:10A2080017F3F16F6700C35983C7EA058280238F6C
:10A21800FA041C3082805A851763F26F6700034086
:10A228009880B2846304051C2A229700F26FE780A5
:10A2380000EA2A84630D05181C5193F707046398F4
:10A2480007185C45494503A9470171225230B70BED
:10A25800B3002A8A9F05CBAA16FB1385EB179770C4
:10A26800F26FE78020D74A859710F26FE780C02BFE
:10A27800630C09108347190013F74700630607109A
:10A28800858BB9C383460900130649003522814AE4
:10A298004DEDBE208965E9052310FA00C9465946E7
:10A2A8001F051A20CA4297B0F16FE78040F5D285A2
:10A2B8003D22BD572303F40256851D2A268590802A
:10A2C8001763F26F670083355C40DDEF2122AA89AE
:10A2D800894601468520DE24A183A380F900DE2477
:10A2E8002380F900C52889460146AA8AA120130BB4
:10A2F800E902138544000147DA865686CE8597E041
:10A30800F26FE78020194E85E5200946B305C9009C
:10A3180056859770F26FE780E0CE15E10346090095
:10A328000147DA86D68513052A0097E0F26FE780A1
:10A33800401185B7B6851733F26F6700E3E99F05CB
:10A34800CBAA1A1F1385EB172528528555205920AB
:10A35800BE2089652A841EA1ED05894659461F0538
:10A368001B202C4297B0F16FE78060E9A285852811
:10A378009F05CBAA1A4F112081B71F057E01B30094
:10A388001773F26F670083C45C4095CF1C50C18B74
:10A3980099C79F05CBAA1A2CCD37814A7DB781452D
:10A3A800228597F0F16FE780C0D5C1462A86AA8A30
:10A3B8002120E30005EE9480B68513052A001733A3
:10A3C800F26F670083689F05CBAA1A39F1B7814AF3
:10A3D800014AA5BF09451763F26F6700A3242A86BF
:10A3E800814601451763F26F6700C37F814AE9B56B
:10A3F8001763F26F6700832213F535008280788037
:10A4080004452A899D45885083A94400137505048D
:10A4180013351500050597F0F16FE780603A83C79B
:10A4280074022A84BB8A37029770F26FE78000852E
:10A4380008B0DC44AA8A2685BC3B93F70703B337E8
:10A44800F0003CA09700F26FE78020D68347D90040
:10A458002A8AE98FA306F9003CB09760F26FE7807B
:10A46800601A3B1505019C5093F7070499C3034AEA
:10A47800D900A30144018347C900858B81CBBB93D5
:10A488000A033C2081E73C30ED9B3CB0B727040031
:10A4980083A7478D9C43DC2B5CA08347D900858B21
:10A4A80089E783C77402BB9407029C5093F707049B
:10A4B800A5CB8D475CB07CA0930500081385E90106
:10A4C8009730F26FE780A0889C509D46228699833A
:10A4D80093C71700858BB387D702B6851385070105
:10A4E8004E959730F26FE780405619C99F050BAA21
:10A4F8001ABE1F057E01B3009770F26FE78000ADAA
:10A50800A2852685708017F3F16F67006329994645
:10A518000146B68505059730F26FE780E0CBBDB7F9
:10A5280083C759018D8B5CB083C769018D8B61B777
:10A5380068812E89328A2A84B031B709B3009F0511
:10A54800CBAA1AE1852822859700F26FE78080EA76
:10A55800AA843DC5A307010052309F05CBAA1AE67D
:10A568009128D0349F05CBAA1AEF1F057E01B300AE
:10A57800A120228597F0F16FE78040265286CA8590
:10A58800268597F0F16FE780A036A307A10005E1C3
:10A598001C50374708002685D98F1CD09700F26FCA
:10A5A800E78060C326859700F26FE780A0650345C2
:10A5B800F10064811385E9171773F26F670083A1AF
:10A5C800034639009305F10022859700F26FE78072
:10A5D80040E4AA849F05CBAA1AEA1385E917977065
:10A5E800F26FE780A09EB5FC8347F1001307E00EE9
:10A5F800E39FE7FAA30701005DBF00000000000029
:10A6200028802A8401C9EFF02FFE09C522852080E9
:10A630006F20E03F2480B7A70400AA8503A58741C7
:10A640006F40B048B7A70400AA8503A587416F40B3
:10A65000D04F0F00F00F828005458280397106CE01
:10A6600022CC2ED232D436D63AD83EDA42DC46DE7E
:10A6700009C92A84D53711C54C1022852EC6EF4052
:10A68000E020F24062442161828001C508416F30C0
:10A69000B05B7D55828048802A84AE8432853689BD
:10A6A00001CC3B0206FFEF40901FAA8608404A8675
:10A6B000A68540806F30304C7D5544801880EF5027
:10A6C00020060F00F00F14801880EF5020060F00B6
:10A6D000F00F14801880EF5020060F00F00F148048
:10A6E0001880EF30106319E10F00F00F14806F40F5
:10A6F000A0386F40803409C50841FD556F30B06EF9
:10A700007D55828001C508416F40600182802880AC
:10A710002A8419C93B8305FF2E85EF405018AA856E
:10A72000084020806F40A0397D55248001C5084134
:10A730006F40A04382806F40300E6F40700F828068
:10A7400011C50A2117730D906700438F7D558280D4
:10A75000188011CD0A2197700D90E780808E9F0799
:10A760000D0300026307F50001E5054511A07D55C5
:10A7700014800145F5BF5C459B85B70498411C4991
:10A78000937677001B86C7041C42BB9B06019D8BFA
:10A790003B9A07019F0754BC0400D8C31842D8C78E
:10A7A000584998CB584198C31845BB65070298A7EC
:10A7B000184D0145D8CB82801F054613008082804A
:10A7C0001F054913008082809F076CBC04009C23F6
:10A7D00099CF9F0754BC04009C433307B50063EC3A
:10A7E000E700637AE5006368B700014582801F05D2
:10A7F0004013008082801F050100008082807881E4
:10A800009F046CBC04009C202A84ADEF7D5559C484
:10A81000EF00501E6800BD2551E1B24A0349040013
:10A8200083491400EF00500C2A8AEF00700CAA86AE
:10A83000D2870147639AE604EF00D00B05468145B5
:10A840001D3F29ED1F076DBC040085471CA3584020
:10A85000B70710906367F7041F0654BC0400144444
:10A860001C4263F3F600B6877D173E97B7068090CB
:10A870006379D7021CC285479CA09F076DBC04006A
:10A880009C2385E7014519A83E85F10703A647FEED
:10A890006397CA004E86CA85F93D55D9748105076C
:10A8A00051BF1F0542130080D5BF1F054113008013
:10A8B000F5B788812E8AB285AA89B284313741EDF5
:10A8C0007D55630A0A08EF00F01413F939002A8B4A
:10A8D000630209049147B3872741B389294193FA59
:10A8E000F70F63F4F40093FAF40F02C611466C00FC
:10A8F000A5202A8429ED7C00D68633862701D685BB
:10A90000952009C51F040400008091A09109569A62
:10A91000B384544113F9C4FF630B09004A86D285FE
:10A9200025282A840DE54A9ACA99B3842441014412
:10A9300099CC9F0754BC040002C6D44311466C0056
:10A9400005202A84A6867000A685292845FD5A85FB
:10A95000EF00900C228584819F0754BC0400D443EF
:10A960004E8595A352856FB09FDE9881AE8AB285E1
:10A970002A8AB284913D2A844DE563890A0CB30585
:10A980009A005285EF00900993793A00AA8B638E62
:10A9900009049147B3873741330A3A4113FBF70F54
:10A9A00063F4F40013FBF40F1F0954BC0400832666
:10A9B000490095282A8409ED7C00DA865686DA85D6
:10A9C00033853701EFB0BFD809C91F0404000080E8
:10A9D000112081A85E856F0090098326C9009D2003
:10A9E0002A84110ADA9AB384644193F9C4FF6DF0A2
:10A9F000638E09009F0754BC0400D4474E86D68559
:10AA0000A120CE9A4E9AB38434411DE9F1D01F049F
:10AA100054BC04005440012819C96D3F1F040400B0
:10AA200000802285948111466C00528569A9A68612
:10AA3000568691456800EFB09FD165F154441920C6
:10AA40002A8479B711466C00528539A37D54D1BF51
:10AA50008880AA842E848D3B39E1B3858400FD77FC
:10AA600013974501B3F9F40041CBED8F0567BA9711
:10AA70001F0501000080639434036392F5024E8544
:10AA800033893541EF0080792A8B0144814A014A9C
:10AA9000631E090481445A85EF00607D2685848009
:10AAA0009C4B9B87D7048043935AE400568A636784
:10AAB00059019387FAFFB3F7370191CB85069F07BA
:10AAC00054BC04009827E3EDE6FC6383E60291673B
:10AAD000FD177D8C1B24541D0146A2854E85C92976
:10AAE000AA8455F933094941D2995DB78546C1BF5A
:10AAF0009F044713008045B7E38334F91F05010025
:10AB0000008071BF68809F076CBC04009C239DC7B8
:10AB10003BFD061391C21DC63684B284AE892A89D4
:10AB2000EF00406F2A8AA2862686CE854A8545296F
:10AB30002A845285EF00406E228564801F044013F2
:10AB40000080DDBF1F0401000080FDB728801F04C6
:10AB50006EBC04001C2081E7712985471CA00145BB
:10AB600024801F076EBC04001C2381C7230007003C
:10AB70006DA101458280B7070090138707109F06DB
:10AB800014BE040098C2138707209F0608BE040065
:10AB900098C2138707249F0604BE040098C2138737
:10ABA00007309F0610BE040098C2938707401F0716
:10ABB0000CBE04001CC301458280B7C7040003A774
:10ABC00007E19D561B45D5CA5C47B70600C0F58F07
:10ABD000C98F5CC782805881AA8419252A893125AA
:10ABE00092470D57054493F7778093E787029BC7F9
:10ABF000E7EE22C4AA89331494003EC202C68144FF
:10AC00004800BD21854501462E854521F121B7C764
:10AC1000040083A7C7E09C43E18F91CF4E85EF00EE
:10AC2000A0789387140063E624011F054413008075
:10AC30005481BE84F1B70145E5BF48819C212A8932
:10AC40002E848E0793E717003EC29307F5FF014558
:10AC50003EC402C64937AA840DE5480011290547BC
:10AC600002C063622703B7C7040003A7C7E0824797
:10AC70009335290001461CC393C5150001453521B4
:10AC8000A129268544811C08B386E700B307E400A8
:10AC90009C230507A387F6FEE9B718810145253FE8
:10ACA00099476C0005452306F100413FAA8719E149
:10ACB0001D37AA873E85148158852A89AE89B284BA
:10ACC0003684E13FAA8721E922C24800398026C4A0
:10ACD00022C6792E4A85D535A6864E869305000470
:10ACE0000808EFB0DFA6FD571DE513F63400333634
:10ACF000C0001B069644219E1808814593970501C4
:10AD0000C18363ECC7000546B2850145792EE9266B
:10AD10000145D135AA873E855485B7C6040083A670
:10AD2000C6E01C4311079B86B6049CC28505F9B793
:10AD3000488593079025854401453EC23289368473
:10AD400036C426C6493DAA8725E148001526014597
:10AD5000AD352686A6852685892EBD2E13060004D0
:10AD600081450808EFE0DFFBB7C7040003A6C7E092
:10AD7000935624000C080147631AD70293773400D6
:10AD800091CB931727003307F60018439408B69722
:10AD900023A0E7FCA2861008A2854A85EFB03F9B5E
:10ADA000FD5719E10D3DAA873E8544859B07E604C2
:10ADB0009C430507910523AEF5FE7DBF38858E05C2
:10ADC00093E515002EC236C402C6B2843684A9208B
:10ADD00019E925C0A2862686930500040808EFB06D
:10ADE0001F9719C17D55348593763400B336D00052
:10ADF0009B868644A19E1808814593970501C183CF
:10AE000063EED70005444800A5240146A28501450C
:10AE1000692CD9241120C1BF014575BB37C6040078
:10AE20000326C6E01C4311071B06B6041CC2850599
:10AE3000E9B70144C9BF45BF38818E0593E51500C8
:10AE40000145B28436842EC236C402C66933AA874D
:10AE500005E94800312C85452E850146B924AD2CE5
:10AE6000B7C7040083A7C7E0A2860A869C43A285D1
:10AE700026853EC0EFB0BF8DFD5719E1A93BAA87DB
:10AE80003E85348128812A84FD31252815E9314603
:10AE90009F05582304004800EFE09FE74800C92AB7
:10AEA000854501462E851124052CB7C7040083A7CC
:10AEB000C7E0130700F09C439BC7E7D01CC01120DC
:10AEC0002481014509BB7885AA892E8A3284368976
:10AED00093040004014525C4935AE900ED3925E1A6
:10AEE00063739400A2849167FD17B377F9009BA761
:10AEF000571D48003EC226C456C69D2A4E85753948
:10AF00000546B28532855522C12A13F73400B7C7EA
:10AF100004003337E00003A5C7E01B07974414087B
:10AF2000219F8145368693970501C18363EAE70037
:10AF3000A686A6855285EFB09F8119C97D55748577
:10AF40009B07B5049C438505910623AEF6FEE1BF41
:10AF5000A699269A058CBDBF78809377F5031307D1
:10AF60000004B304F740AA892E8A3284B68A637338
:10AF70009600B28426864E853D202A891DE1058CE7
:10AF80000DC0269ACE94A2893B6204419309000425
:10AF90004E862685092819E9330434414E9ACE9409
:10AFA0007DF04A857480D686D28539B32A89D5BF8B
:10AFB000488197200E90E7804050C53105E1480058
:10AFC00026C202C402C66D202285C53E0145134635
:10AFD00019008145D92809220145F53E4481BB74F9
:10AFE00005039F07642304009B87A7049C43828773
:10AFF0007D558280B7C7040083A787E01F0718BE6E
:10B0000004000145944314C3D44354C3944B14C760
:10B01000D44B9C4F54C71CCB828018809F0718BE0E
:10B02000040037C604009843832686E0014598C291
:10B03000032786E0D44354C3944714CBD4479C4B96
:10B0400054CB1CCFB7C7040083A747E1054798CB73
:10B050005936014514800000F90400000300000087
:10B060000000000038210400BC200400302004004F
:10B07000B7C7040003A607E11C41144613D73700E5
:10B080009375F70F13F706F04D8F14454C41AD83C0
:10B090009D8B9D8AC607FD1593F5F5039BA7D708E1
:10B0A0009BA7B71218C61CC28280B7C7040003A7AB
:10B0B00007E1058985891C43058A93F7F7EF9BA76C
:10B0C000A71093F7F7F79BA5B70EDD999BA5C506CB
:10B0D00013E6350010C38280B7C7040003A707E159
:10B0E0001C43858BF5FF82801F0564240400828049
:10B0F000054582801F0580240400828039C6FFFF39
:10B10000C106004001010004020000000000000030
:10B1100019000000010000001100000039C6FFFF07
:10B12000C106004091020020010100041900000046
:10B1300059400000D9490000D9550000596B000062
:10B1400059F700000100000011000000004000005D
:10B1500000400000912900000040000002000000B3
:10B1600000000000C860140000001000040000008F
:10B170002C240400442404001C2404005C24040047
:10B18000FFFFFF000000080003000000102404007F
:10B1900014240400FC2304000824040038819307CD
:10B1A00010283EC202C402C62A84AE842D208145E6
:10B1B0002D201D37A5473EC289473EC4B7C70400AE
:10B1C00083A7C7E002C69B2594108CC32920854520
:10B1D000292019373481480061BD01460145F1B588
:10B1E0009F071C1F0020884382809F07181F002094
:10B1F0008843828028801F045CBE04001C2091EBE1
:10B200001F0558BE040097400D90E780806F85476A
:10B210001CA024806FF08FCA6FF0CFCB38812A84B6
:10B22000EFF0CFC923070100A3070100AA8413068A
:10B23000E10095453D201306F100930550031520CC
:10B240008347E1003707080093F73708637EE4007F
:10B250002307F1000345E1008345F100813726858E
:10B2600034818546014579B893E70703D5B728812E
:10B2700023070100A30701002A841306E100954576
:10B280001D201306F1009305500331280345E1000A
:10B290008345F1001365C5072307A1000137228507
:10B2A000EFF04FC3248185460145A9B84880EFF0EF
:10B2B000EFC01F0438BA04001C202A8991C7EFF0A0
:10B2C0006FC1814426854480AD22AA8409C54A8580
