:02000004901159
:105300006F0040009702F36F9382C25C739052303B
:105310007350003073504030930240007390227CF1
:105320000F00F00F9302C0007390327C0F00F00F5B
:1053300097E1EE8F9381811017B1EE8F1301812CCD
:1053400097D2EE8F938202AC17130800130303D693
:105350000B30030097C3EE6F9383C3AE63800302E9
:105360000B0083FF130303020B3003000B9082FF3B
:1053700093820202938303FEE34470FE97C2F26FAE
:105380009382425A175300001303C35B0B30030090
:105390009743EF6F938303B7638003020B0083FF90
:1053A000130303020B3003000B9082FF938202026F
:1053B000938303FEE34470FE97B2F26F938282C43C
:1053C00017030000130303240B3003009303004171
:1053D000638003020B0083FF130303020B300300FF
:1053E0000B9082FF93820202938303FEE34470FEDC
:1053F00097C2F26F9382821A17C3F26F130303529C
:10540000638A62009303000023A07200938242002B
:10541000E3CC62FE97B2F26F9382C2FF17B3F26FD2
:105420001303C310638A62009303000023A0720079
:1054300093824200E3CC62FE9752F36F9382823EE6
:105440001793F36F13030377638A620093030000DB
:1054500023A0720093824200E3CC62FE97B2F26F07
:105460009382C20C170300001303835D97C3EE6F92
:10547000938343C0E38E03F6032E030023A0C201EF
:1054800093824200130343009383C3FFE34670FEFD
:10549000B762000073A002307310300097F2000072
:0854A0009382E21F6780020005
:1054A80000000000CAFED00D02000000000000004D
:1054B800627332316520312E302E31380000000001
:1054C80000000000000000000000000000000000D4
:1054D80000000000000000000000000000000000C4
:1054E800756E6B6E6F776E000000000000000000A4
:0854F8000000000000000000AC
:10560000000000000000000000000000000000009A
:10561000000000000000000000000000000000008A
:10562000000000000000000000000000000000007A
:105A1000D6471290789311907A87119088871190C9
:105A200048481290307D119052481290468F119044
:0C5A30006A841190768C119098471290B7
:105A3C0017330E906700233417330E9067004336EC
:105A4C0017330E906700836F17430E906700E3A423
:105A5C0017730D90670023EA176312906700E31E1B
:105A6C00176312906700C313176312906700833893
:105A7C00176312906700C337176312906700C31245
:105A8C00176312906700031217E30E906700E33957
:105A9C0017E30E906700A37617E30E906700237050
:105AAC006F90104A0000000017E30E906700036F20
:105ABC006F90F04F0000000017130F906700432504
:105ACC0017130F906700E31F176312906700238171
:105ADC0017F30E906700231717130F906700639549
:105AEC0017C312906700C344175312906700C37C0E
:105AFC00175312906700837D175312906700837DB4
:105B0C0017C3129067008334175312906700037801
:105B1C00175312906700E37617C312906700831C2B
:105B2C0017C312906700C31B17C312906700032A98
:105B3C0017C312906700632217C312906700433695
:105B4C0017130F906700232217130F906700031F82
:105B5C0017130F906700632717130F9067004324E8
:105B6C0017C312906700A31E17C30E906700830122
:105B7C0017C312906700231717C312906700C3183E
:105B8C0017C3129067006314176310906700436E7D
:105B9C00176310906700C36C176310906700C36C99
:105BAC00176310906700E36A176310906700834FC8
:105BBC00176310906700834F176310906700C34DF5
:105BCC00176310906700834F176310906700A35200
:105BDC00177310906700E3BF17731090670043BDF5
:105BEC0017731090670063BF177310906700E383FF
:105BFC00177310906700A3866F90F02E00000000C2
:105C0C0017E30E90670003F717E30E90670023F776
:105C1C006F90F02D000000006F90F02B0000000042
:105C2C0017930D906700C32117930D906700A31D68
:105C3C006F905022000000006F9030260000000092
:105C4C006F90F0290000000017930D90670043241B
:105C5C0017930D906700232017E30E906700030243
:105C6C0017930D906700232417E30E906700C3F180
:105C7C0017E30E906700A3D317E30E906700E3D4ED
:105C8C0017E30E906700C3D617130F906700E34A13
:105C9C0017130F906700634817C3129067006305D2
:105CAC006F809023000000006F80701800000000CF
:105CBC00176310906700A333176310906700032ECF
:105CCC006F801063000000006F90B00C00000000AB
:105CDC006F90A07C000000006F80403B0000000033
:105CEC006F800032000000006F8020370000000041
:105CFC006F80C037000000006F8060320000000031
:105D0C006F800034000000006F80205700000000FE
:105D1C006F80206F000000006F80C04D00000000FD
:105D2C006F80003700000000175315906700836DDB
:105D3C0017230F906700C37F17230F906700637EB4
:105D4C0017230F906700637C17230F906700A37CC9
:105D5C0017230F906700837E17330F90670043E281
:105D6C0017330F90670043E617430F90670083517A
:105D7C0017330F906700236117330F906700C35FD1
:105D8C0017430F906700837217430F9067002339F6
:105D9C0017430F906700433417430F906700C33AC3
:105DAC0017530F906700634A17530F906700833B9C
:105DBC0017530F906700439217530F906700E383BC
:105DCC0017230F9067004361174315906700835F9B
:105DDC0017230F906700A35E17230F9067002357BC
:105DEC0017230F906700236417230F906700A353AA
:105DFC0017230F906700E34D17830F90670083689C
:105E0C0017930F906700838B17730F90670043D025
:105E1C0017930F906700038E17630F906700A359B9
:105E2C00175315906700438D17830F906700A36E6F
:105E3C0017730F906700E3C517730F90670043CC7F
:105E4C0017830F906700036917630F906700434D2A
:105E5C0017730F906700E3D117830F906700C3CBC4
:105E6C0017730F906700033817630F906700A355E3
:105E7C0017630F906700C34C17C31290670083E839
:105E8C0017731190670083CD17731190670003C7C8
:105E9C0017731190670063E3176311906700C37663
:105EAC00177311906700639B177311906700A39889
:105EBC001763119067006374176312906700238453
:105ECC00176312906700A3C11763129067000383D6
:105EDC00176312906700C382176312906700E3A4E4
:105EEC00176312906700E381176312906700838138
:105EFC0017631290670023C117631290670003AEFB
:105F0C00176312906700C3A3176312906700A3ABCB
:105F1C0017631290670083A117631290670063A93F
:105F2C00176312906700C3BD17631290670083B3A9
:105F3C0017631290670063BD176312906700E3A9A3
:105F4C00175312906700E37C175312906700837C01
:105F5C00175312906700237B176312906700C3C31B
:105F6C0017631290670083C117631290670083C296
:105F7C00176312906700A3C1176312906700E3F8D0
:105F8C0017631290670083C1176312906700A3F325
:105F9C00176312906700E3F417631290670083E6AF
:105FAC0017631290670043E617631290670043E58E
:105FBC0017631290670083E417631290670043F92C
:105FCC00176312906700C3BB17631290670003E45A
:105FDC0017631290670043E217631290670003BDCA
:105FEC00176312906700E3BA17631290670083B9C6
:105FFC0017631290670063B9176312906700A3B818
:10600C00176312906700C3B6176312906700C3B68C
:10601C00175312906700436C175312906700436C30
:10602C00175312906700C36C175312906700836B61
:10603C00175312906700836B175312906700C36B52
:10604C00176312906700230A176312906700230AE4
:10605C0017631290670003341763129067000334C0
:10606C0017431590670083F3173312906700232CA6
:10607C00175312906700A3C1175312906700E3B235
:10608C00175312906700E3BE17531290670043CB6F
:10609C0017130F906700C36617130F9067004361C7
:1060AC0017130F906700235F1723129067000336B6
:1060BC00174312906700635C174312906700C35537
:1060CC00174312906700C35F174312906700035E7B
:1060DC0017131290670063CC171312906700A36715
:1060EC00175312906700A3E1171312906700630D0A
:1060FC001743129067004365174312906700A3671C
:10610C0017531290670043CE17531290670043CC7D
:10611C00175312906700E39A175312906700C3A5A8
:10612C0017131290670043C817130F906700A35AF8
:10613C0017531290670023C317331290670083AB79
:10614C001723129067002331172312906700E3F98D
:10615C0017231290670023F017531290670023D572
:10616C0017231290670003FF172312906700E36058
:10617C0017231290670003FB172312906700A35399
:10618C001753129067004398175312906700C396E9
:10619C00175312906700C39A175312906700839895
:1061AC00175312906700839B174312906700035399
:1061BC001743129067008357173312906700235FC1
:1061CC00173312906700235F171312906700C3BC3C
:1061DC0017130F90670063FB17130F90670043FAB8
:1061EC0017130F906700A3FB17130F90670063FA48
:1061FC0017130F90670023FC17130F906700E3FA37
:10620C0017130F90670043F717130F90670023F6CF
:10621C00177311906700C3856F90A05100000000A8
:10622C00176312906700C3ED17631290670083F732
:10623C0017631290670083F617631290670003F7D9
:10624C0017631290670043EE17631290670003F315
:10625C0017631290670003F417631290670083ECC6
:10626C0017631290670023EC17631290670083F199
:10627C0017631290670083F117631290670083EF26
:10628C0017631290670003EE17631290670003ED1B
:10629C0017631290670003EC17631290670063E9B1
:1062AC00176312906700E3E417631290670083F0A2
:1062BC0017631290670083F0176312906700E3E690
:1062CC00176312906700A3E617631290670043E60A
:1062DC0017631290670003E617631290670003E6DA
:1062EC0017631290670063F617631290670083E5DB
:1062FC0017631290670043F217631290670083ECE8
:10630C0017631290670083EC17331290670023C554
:10631C0017331290670043F917331290670063EB41
:10632C0017331290670023FE173312906700A37681
:10633C00174312906700E324174312906700438CB5
:10634C00174312906700A39617431290670083AD12
:10635C00174312906700E3CA174312906700C3D922
:10636C0017431290670023E417C312906700039938
:10637C0017431290670063D21773109067008396CF
:10638C001793109067006399177310906700C3946C
:10639C001773109067006390177310906700A38DAC
:1063AC00177310906700A38E177310906700638D9E
:1063BC00177310906700A38A177310906700E38A15
:1063CC00179310906700239B177310906700638ED0
:1063DC0017731090670023AB178310906700039816
:1063EC001783109067004398179310906700239AB7
:1063FC00177310906700238B179310906700037628
:10640C0017931090670063E917931090670023E8C7
:10641C00179310906700836E17B310906700638416
:10642C0017A310906700635017A31090670003FC2C
:10643C0017A310906700A383175311906700E3F024
:10644C00175311906700C30D175311906700433613
:10645C00175311906700436517531190670023F58C
:10646C0017C310906700639E17D3109067004363A7
:10647C0017C310906700A3AA17C31090670043AD11
:10648C0017D310906700234D17B310906700C34BC0
:10649C0017C310906700E38417C310906700638ED6
:1064AC0017C310906700239417D3109067004351C3
:1064BC0017D310906700032717B310906700A3F54C
:1064CC0017B310906700233317D310906700035055
:1064DC0017D310906700831E17B30E9067004330DC
:1064EC0017B30E906700E33217B30E906700C335F5
:1064FC0017B30E906700E33817B30E906700433C58
:10650C0017B30E906700E33F17B30E906700A357C5
:10651C006F40802D000000006F40603600000000CE
:10652C0017630D90670023476F40806000000000E8
:10653C006F00D011000000006F0070100000000010
:10654C0017B30E90670043E717030F906700E30D36
:10655C0017030F906700431C17030F906700631C11
:10656C0017030F906700831317030F906700430BFB
:10657C0017030F906700831917030F9067004318D8
:10658C0017030F906700231717030F90670003166C
:10659C0017030F906700C32617030F90670083291A
:1065AC00176311906700A37617030F906700A33A47
:1065BC0017030F906700232F17B312906700A3786F
:1065CC00175312906700638617731190670003B519
:1065DC0017731190670023BD17731190670003A9FF
:1065EC0017631290670063DC17631290670063DB1C
:1065FC0017631290670003DB176312906700A3DA2E
:10660C00176312906700C3D96F40005C0000000054
:10661C006F40601F00000000176311906700230794
:10662C00176311906700231A176311906700430FCB
:10663C00176311906700E31A6F40201A00000000E6
:10664C0017030F906700632217B312906700A370B3
:10665C0017B312906700836E17B312906700636FC5
:10666C002C0107000700170005020200FFFF0000C5
:10667C0001000000010000000100BC0DAC0D2C0E4F
:10668C00CC0D1000540BD40ACC0F2C0E0800282271
:10669C00CC192805D02E04010808B0260401CC0F13
:1066AC0007000C1B040110000C181000140A100039
:1066BC00740AD40B1000D40B540B0800682405008A
:1066CC00E4330401004006010A00000503000A003F
:1066DC000A00000500FC100732FC064C08000A00FA
:1066EC00020002000A00000060EA00001400000032
:1066FC00409C00000A00010001009700080A0000FD
:10670C0000000000887B1190FFFFFFFF00000000DD
:10671C00286E696C29000000286E756C6C290000CD
:10672C00280000006E000000750000006C000000E6
:10673C006C000000290000000000000000000000B8
:10674C00C83E0300F63D030076310300DE6516906B
:10675C00D8651690CA1E0300421F0300E82C0300E4
:10676C00E4651690F6651690E8651690EE65169041
:10677C00010000000000000000000000000000000C
:08678C0000000087000000007E
:1067940000010000D0E8129001020000E4E8129029
:1067A40002030000F2E8129003020000F4E81290E1
:1067B400020400009AEB12900405000072EB1290A0
:1067C4000504000074EB12900402000000000000B5
:1067D40002000000FEE812901C2500009411000045
:1067E40000000000000000000000000000000000A5
:1067F4000000000000000000000000000000000095
:106804000000000000000000000000000000000084
:10681400000000000000000084A604000000000046
:106824000000000000000000000000000000000064
:106834000000000000000000000000000000000054
:106844000000000000008000000000087A0C000036
:10685400EEEF332B1D1CA2000D0000000001000010
:10686400A27C0100AD7C010001010000A27C0100BA
:10687400AD7C0100FFFFFF000000000000000000ED
:10688400FFFFFF000000000000000000D4000080B3
:1068940000500000CC000000030303003CA00100F2
:1068A40040A0010044A001007EA00100F6A0010068
:1068B40010A10100569F01005A9F01005E9F010034
:1068C400909F010008A0010022A0010090D30400C1
:1068D40084D30400921913909E191390C81A13902C
:1068E400681B139000180400F4170400A2A101000F
:1068F4001AA20100000000000000000000000000D7
:106904000000000000000000000000000000000083
:1069140000000000101804000418040014A301006F
:10692400C0A3010024A40100B8A40100FFFFFFFFDD
:10693400FFFFFFFF060000001E00282300000000E8
:106944000000000000000000000000000000000043
:106954000000000000000000000000000000000033
:106964000000000000000000000000000000000023
:1069740000000000B012020000000000000000004F
:106984000000000000000000000000000000000003
:106994000000000000000000AE1202000000000031
:1069A4000500640002056400000000002D01DD0103
:1069B4005A02BB020A034D038703BA03E803110416
:1069C40037045A047A049804B404CE04E704FF0498
:1069D40015052A053E0552056405760587059705C4
:1069E400A705B605C505D305E105EF05FB050806B2
:1069F400140620062C06370642064D065706610685
:106A04006B0675067F06880691069A06A306AC06F1
:106A1400B406BC06C406CC06D406DC06E306EB06C4
:106A2400F206F906000707070E0715071C072207D9
:106A340029072F0735073B07410747074D0753072A
:106A440059075E0764076A076F0774077A077F07A9
:106A5400840789078E07940798079D07A207A7074D
:106A6400AC07B007B507BA07BE07C307C707CC070B
:106A7400D007D407D907DD07E107E507E907ED07E4
:106A8400F107F507F907FD070108050809080D08CE
:106A94001008140818081C081F08230826082A08C8
:086AA4002D0831083408380800
:106AAC00000000003880B7B70400AA85AA8403A5AB
:106ABC0007029700F36FE780C0FE2A8401C9A686FF
:106ACC000146A6859760F26FE780C07022853480FE
:106ADC003880B7B70400AA85AA8403A507029700DB
:106AEC00F36FE78080002A8401C9A6860146A6853B
:106AFC009760F26FE780006E22853480B7B7040090
:106B0C00AA8503A507021703F36F670083F9388082
:106B1C00B7B70400AA85AA8403A507029700F36FF0
:106B2C00E78020F82A8401C9A6860146A6859760CD
:106B3C00F26FE780206A2285348017B3F26F67000A
:106B4C00E3DF588019E17D55548000416DFCB7B9E5
:106B5C000400AA8403A50902B1459700F36FE780EE
:106B6C0040F488C06DD1EF1060112A8909C98C409E
:106B7C0003A509029700F36FE780A0FA80C04A854D
:106B8C00E1B738801DC12A840841EF100014B7B753
:106B9C000400AA840C4003A507029700F36FE7805A
:106BAC0040F826852320040034807D55F5BF1881DC
:106BBC0081CD36863AC4AE8632C658000146994518
:106BCC002AC2EF10401C14817D55F5BF81456F1012
:106BDC0060271880EF10C0290F00F00F1480188068
:106BEC00EF10802A0F00F00F14806F10602B6F10C5
:106BFC00404805C11C413BF7071437B70400032775
:106C0C00C7F65B17F7147827BB11070199E36F10D0
:106C1C00E02F7D558280288019C52A840841EF1009
:106C2C008034232004002480AE8709C963C8050082
:106C3C00AA851395070141816F10A0757D5582803F
:106C4C00AE8709C93BF40502AA851395070141815A
:106C5C006F1080757D55828001C508416F10E075FD
:106C6C008280788201E5814426857482B7BA04005B
:106C7C002A8403A50A02AE8991453689328A970087
:106C8C00F36FE78000E2AA8479DD2317010052CC70
:106C9C0093070020CA866373F900BE86A9472316A2
:106CAC00F1002C0093070010480036CA3ECE22C4D7
:106CBC004EC802C2EF10707A09C903A50A02A68554
:106CCC009700F36FE780E0E579BF92479CC069BFFE
:106CDC0009C50841A19D6F20A0007D55828005C18A
:106CEC002880B7B704000041AA8503A507029700C6
:106CFC00F36FE78000E3228520806F10106982809B
:106D0C001880EF10601B01451480288005C95C4178
:106D1C0095C71C4185E72A8448459700F36FE780A7
:106D2C0080B509CD48449700F36FE780C0B4184490
:106D3C005040A286894520806F1010017D5524801B
:0C6D4C0001C50A216F1070197D5582806E
:106D580058802A89BB7C05039DC51F0438C60400DA
:106D68002A941C20014791EFAE848545B289C52C31
:106D780081464E86A6854A8591202A8719E185474E
:106D88001CA03A8554801F0701000080DDBF4880A1
:106D98009F04C4C9040001441379F40F112819C9C8
:106DA800012888C0050491043B1CF4030145448074
:106DB8004A85B1AC1F0543100080D5BF8880AA8AD8
:106DC8002E843289E937AA89631F05221C209DC3B6
:106DD80085450D28484497B0F26FE78080FF8347C8
:106DE8000402BB890707BB88071F9F09301300806F
:106DF8004E85848081453920484497B0F26FE780FA
:106E080060FDF1BF568519AC442C3BF8F4063B9263
:106E18000402E30C09FC1C2CBBF4F703834744026F
:106E2800BBF2F7041C283BF1F7025C28BBFFE70222
:106E38008347C402BBFDE7021C20638907181C4C6A
:106E4800BB8AE70181455D2A1F0AC4C90400139B58
:106E58002A00B3046A019C40568523A207009C407F
:106E680023A607004C2C97B0F26FE780E0E1144CA2
:106E780049221D568D8A9BC7C7DA9BA7D72C5CC3AE
:106E88005448852A858ADD9B9BA7D7065CC314488E
:106E98008D22858ABD9B9BA7D7085CC31450912A75
:106EA8000156FD8A9BC7C7E69BA7D71A5CC39C40BF
:106EB8001850D4433D8B93F6F6E11BA7E60AD8C3D6
:106EC8005450052A1D568D8A9BC7C7E29BA7D72415
:106ED8005CC31C4C3B9507024C50BB93050156857F
:106EE80097B0F26FE780C0C5B3076A01984383275C
:106EF800C70CD9472326F70C8326870D232CF70CBC
:106F08001C20A5EB5C40014689C7FD1705463316D2
:106F1800F6008326870C931706014176C183F18E0C
:106F2800DD8E2324D70C54449F0540420F005C4B50
:106F3800B385B6021444B3D6B602BBF1060289463D
:106F4800A19EF18FD58F5CCB1C2C3B960702854503
:106F58005685ED2033076A018327C9001843232883
:106F6800F70E0C54D1C9FD15568597B0F26FE7801E
:106F780000BAB3076A019843545485455C43858A2F
:106F8800ED9B9BA7D7045CC395288145568597B090
:106F9800F26FE780A0F719C12320050093060003CC
:106FA8003385DA029F07D0C9040022863E9511284E
:106FB8001F0560CA0400C1464A861B0555091120F1
:106FC80005BDB6851773F26F670023A8032A44002E
:106FD800568597B0F26FE780E0F40505E36745E171
:106FE8005C44FD1781E43BE6973001B5BBE497604C
:106FF800EDBB98405C4382808145BDB7568517B389
:10700800F26F670063B29F0931130080D5B39F0701
:10701800201F00201B85A704084182808547370769
:1070280000523395A7008327877289E55D8D232455
:10703800A77282801345F5FF7D8DD5BF8547110561
:10704800370700523395A7008327877289C55D8D5E
:107058002324A77282801345F5FF7D8DD5BF388024
:107068003B0305010DC13B0705023480C94413B435
:1070780015001504EFF0405FA685228530806FF07B
:107088004048CD44EDB7C544DDB718800147814677
:1070980001469F05204304001305F004193E9F078D
:1070A8008473119083C5F7041305F004893613051A
:1070B800F0041536B7D7025723A00794054723A035
:1070C800E7941D4723A6E7941480C1B7B747005734
:1070D800239207227D572390E722B7C70257239CA4
:1070E800071E7D472392E71E239CE71E2398071C53
:1070F80085462396D71C2398D71C2398071E2396CA
:10710800E71E6D472398E71E82805880BB7F1508CD
:10711800ADCD2E89AA8997B0F26FE780E0891F0765
:10712800581F00200043AA84631BE402268597B0F9
:10713800F26FE780E08981457145BD32AA8431C983
:107148002304350131051D2897B0F26FE780C0860A
:107158005C4089CF44C080C0DCC084C301A81C2423
:10716800639C37011305C4001128268597B0F26F78
:10717800E78000860145548000407DB7C1464A86B5
:10718800B6851773F26F6700438C1F0501000080F6
:10719800DDB71F0505000080F9BF05CD18419F0721
:1071A80098D0040098C35841D8C3184598C7584583
:1071B800D8C7184998CB5849D8CB184D98CF584DAF
:1071C800D8CF185198D35851D8D3185598D758555F
:1071D800D8D782806880BB793503BBF8350779CE6C
:1071E8001C46E9CF32842E8AAA891F09601F002015
:1071F80097A0F26FE780407C83270900AA84C11713
:10720800138707016313E904268597A0F26FE780C7
:10721800207C61459520AA840DC523003501A30073
:107228004501B1462286110569209C44BDC34840EA
:1072380005059920C8C031E5268597A0F26FE7803B
:1072480060DE1F05050000802DA098236314370316
:107258009833631147035840C84398C71844D8C7A0
:1072680054401040B920268597A0F26FE7804076F9
:10727800014564809C4B61B7814517A3F26F670095
:10728800E3DA544010403520D8405C40BA97238058
:10729800070097A0F26FE780207283274900E9D79B
:1072A800138704012322E90023A82401DCC898C31A
:1072B80065BFB6851763F26F670023791F05010064
:1072C800008045BF28801F0480D00400E1460146A5
:1072D800B68522859760F26FE78000F0A5473EA447
:1072E80024809F0744D004008A23130715009AA31B
:1072F800828018800145212010806F500126288146
:107308002C002A84EF50A16EA247B7F6FFDF13873F
:1073180006E03E971F06000C00006369E60232474C
:107328009386F6DFBA96BE966362D6029F0658D059
:1073380004009CC222859F0754D0040098C3EF50D4
:10734800216D9F075CD0040088C324819305D01168
:10735800254597A0F26FE780E0CDC5BF25732025AE
:10736800643A206F616C5F696E745F637265617403
:1073780065207265743A307825780A000707070691
:10738800070707070707070600070707070707078D
:107398000707070707070606050606060603030686
:1073A8000000060606040606060604000006060691
:1073B8000605050506060606060606060101010677
:1073C800060206060606060606060006060606065F
:0873D800060600060300000098
:1073E0009B37A5BE1B95A7BE8280AA8798233B0723
:1073F0000720930677FF3BE506053B05072BBB1BE4
:10740000072D85468507014509A88507C5B781462B
:10741000D5BF5B15A00A8507198D9823130707FDB3
:10742000BB6CF70A99E23305A04082808146E1BF38
:10743000788A372900208327C9E02E842AC63ECFC8
:107440002ADCFD578145AA842800B289368ABA8A87
:107450003EC8BD22D28656870546CE852800792CA7
:1074600001C86257B247998F6657BA97A6971CC052
:10747000FA470327C9E06386E70097E0F26FE780E9
:10748000E07C748AFD567D5765B72A88AE86B28740
:107490006304B504F958B30816033387A540118F68
:1074A00063E6E80017A3F26F6700C3B633C7A50011
:1074B0000D8B6374B5042A860DC7B297630DF60071
:1074C0006F036000E5BF850603C7F6FF0506A30F3F
:1074D000E6FE028381E7C286368582806FF3BFFEB7
:1074E000FD17137736007DF7BBE4F7049842F117D8
:1074F0001106232EE6FE9106C5BF19EBB305C500A4
:10750000369613F73500B307D64001EFBBF90704F1
:10751000F9D3FD173387F60018233306F80018A2B5
:10752000C5BFFD15E389C6FA8347F6FF7D169CA10A
:10753000C9BFF1173387F60018433306F80018C2A5
:10754000F1B71DC2930615002A9603C7F6FF9C21CA
:1075500019C791C76385C60085066305F700330523
:10756000F74082808505D5B701458280AA8501C98B
:107570001F05402C002017F3F26F6700435B8280E9
:107580003880868401441DC92A8497F0F26FE78011
:10759000C051BB030501268597F0F26FE780C0500C
:1075A000A2851F05402C002097F0F26FE780205045
:1075B0002A8409E597F0F26FE780004F2285348036
:1075C00058411C596CD5998F3CD91C4581C9B3864B
:1075D000E74063D5D5002E9738D582803CD5828090
:1075E000388018595C412A84998F3859B384E70050
:1075F0007C5589CF63CCF400544018587D5534D461
:10760000158FB30797003CD868D43480228525288D
:10761000E34405FE7C54138714001444504095C382
:10762000998FB385C64063DEB700B2973CD4145837
:10763000B387C6403E9738D8E3E9C6FCA30FA6FE41
:10764000E9B734D4EDB73881B724002083A7C4E06C
:107650002A843EC6912819C97D55B24703A7C4E0C4
:107660006381E70297E0F26FE780405E1C500546B9
:107670009305B100228582973B18F5010345B100BF
:10768000E9BF3481188097E0F26FE780205D09E957
:10769000EF10401E9F076CEB04001B85A7041480AD
:1076A0001F05ACEB0400E5BF288078452A849307CA
:1076B000F7FFD98F7CC5584D5C496386E7005C5164
:1076C00001468145829781471CC85CCC5CC81C4040
:1076D00013F7470011C713E5070208C07D55248042
:1076E000139707017D55E34C07FE085858583A9503
:1076F00008C448C01395B7017D85D5B7D8812A84C1
:10770000AE893289B68CBA8A3BF205253B930501D6
:107710000D2ED9471CC161A844402C54638CB4047D
:10772000938514004CC084203B8CF420938774FF15
:107730003BEAF705938554FDF599014C99E993844B
:1077400034FD93B41400330C9040C92C6387B70206
:107750009D22638E09303B920910BB890430B52805
:1077600063E935077C5463C507005C40FD175CC0C6
:10777000A12879BF552CAA8445BF7D24AA84D1BFF6
:10778000712C6389B702052A93E70402BB9017782E
:1077900071246384B70205228920BBEA45107C541A
:1077A00063C4072C5C40630D0900F9175CC00145F8
:1077B0008145D481952CAA84C1BFBD24AA84E9BF88
:1077C000FD175CC01120E5B781452285D5BB6383D9
:1077D00009183B9D390A014939A89F05847A1190FF
:1077E000A6958C3182805B99240B130909FD3D24F9
:1077F0006385B70AC920938704FDBBF3070A9F0777
:1078000098999919E3F127FF014A938504FD3BF507
:10781000150A9F079999991963ED47036317FA00B1
:107820009F079999999963E62703A947B306FA0236
:1078300013C5F5FF3307F902B337F902B69793D6AC
:10784000F54113C6F6FF6366F600639BC7046379D0
:10785000E5041F0B847A1190B3059B00593763E14F
:10786000351B6C5463C505004C40FD154CC0636F5F
:107870005A1D63944A01636B991D93F41C0063972E
:10788000041A63150C1A752A752A1385FCFFB33C7C
:1078900095019385FAFFE69529BF7922AA84A1BFB5
:1078A0003309B700333AE900B6973E9A852A6388D0
:1078B000B700112099BF938517004CC051A8AD2285
:1078C000AA84A1B7C1491389F9FF337939019F0D02
:1078D000847A1190631D0910DD45B385B9029F07B5
:1078E0007A7A119095819D89BE9583CB0500B385E9
:1078F0009D00C53D63F63501B7070008636EF904C6
:107900005E867D55FD55EFB0B073014A2AC62E8DB7
:10791000B3879D0003CB1700E37D3BF3E36B4DF38F
:107920006315AA01B247E3E627F34A85D2855E864E
:107930009790F26FE78080BF5C4038543369AB00AA
:107940002E8A6387E7021387170058C01120C9B732
:1079500084238280A14985BF331979013369B90035
:1079600075286384B700813F59B77D28AA8441B741
:107970006528AA8471BF338929032E994520638520
:10798000B706153FB3859D00A93D63F735019F07F5
:10799000C6711C07E3F127FF014AB3859D009831AA
:1079A000E37937EB33363903B3864903630B0A00B7
:1079B000B387C600B3B7D700B3B54903BE95E39A02
:1079C00005E8B296B38729031346F7FF3B9206FFFB
:1079D000E361F6E83389E700333AF900369A3D2847
:1079E0006389B700C93D55BF8120AA8461BF0149A1
:1079F00051BF1D28AA8455B715206384B702653D81
:107A0000DA948C30E3EA35FF2D282D2893F41C00FE
:107A10006689568AE38704E4014CA1B55C402C5486
:107A200082801920AA84E9BF22855DBE63E64A01EF
:107A3000631E5A0163FC2C01292029206685D68506
:107A40008DBB89B19304200204C182809357FC410D
:107A500033492C01B3C54701330589413339A900A6
:107A60009D8DB3852541B1B3E31309D4A1BB930721
:107A70000003E387F4D0A949DDB100010204070344
:107A800006050000FFFFFFFFFFFFFFFFFFFFFFFFF7
:107A9000FFFFFFFFFFFFFFFFFFFFFFFFFFFFFFFFF6
:107AA000FFFFFFFFFFFFFFFFFFFFFFFFFFFFFFFFE6
:107AB000FFFFFFFFFF00010203040506070809FF9F
:107AC000FFFFFFFFFFFF0A0B0C0D0E0F101112132B
:107AD0001415161718191A1B1C1D1E1F20212223EE
:107AE000FFFFFFFFFFFF0A0B0C0D0E0F101112130B
:107AF0001415161718191A1B1C1D1E1F20212223CE
:107B0000FFFFFFFFFFFFFFFFFFFFFFFFFFFFFFFF85
:107B1000FFFFFFFFFFFFFFFFFFFFFFFFFFFFFFFF75
:107B2000FFFFFFFFFFFFFFFFFFFFFFFFFFFFFFFF65
:107B3000FFFFFFFFFFFFFFFFFFFFFFFFFFFFFFFF55
:107B4000FFFFFFFFFFFFFFFFFFFFFFFFFFFFFFFF45
:107B5000FFFFFFFFFFFFFFFFFFFFFFFFFFFFFFFF35
:107B6000FFFFFFFFFFFFFFFFFFFFFFFFFFFFFFFF25
:107B7000FFFFFFFFFFFFFFFFFFFFFFFFFFFFFFFF15
:107B8000FFFFFFFFFF0000000001020203030303E9
:107B9000040404040404040405050505050505059D
:107BA000050505050505050506060606060606067D
:107BB0000606060606060606060606060606060665
:107BC000060606060606060607070707070707074D
:107BD0000707070707070707070707070707070735
:107BE0000707070707070707070707070707070725
:107BF0000707070707070707070707070707070715
:107C000007070707070707070808080808080808FC
:107C100008080808080808080808080808080808E4
:107C200008080808080808080808080808080808D4
:107C300008080808080808080808080808080808C4
:107C400008080808080808080808080808080808B4
:107C500008080808080808080808080808080808A4
:107C60000808080808080808080808080808080894
:107C70000808080808080808080808080808080884
:107C800008080808080808083881B724002083A7D6
:107C9000C4E02A843EC61DC9280097E0F26FE78041
:107CA00040E1224593074400232004001CC45CC02B
:107CB00097F0F26FE78080260145B24703A7C4E042
:107CC000638AE70097E0F26FE78040F81F05061C23
:107CD0000002E5B734813881B724002083A7C4E0CF
:107CE0002A843EC629C1280097E0F26FE78060DC55
:107CF0001C44130744006394E7022320040001445A
:107D0000224597F0F26FE7806021B24703A7C4E0F5
:107D10002285638EE70097E0F26FE78020F31F046F
:107D2000081C0002F1BF1F04061C0002F9BF3481C9
:107D30001880EF10405F0145148048802A842E8906
:107D400097F0F26FE780001C4C4023200400AA84C7
:107D500089C9B7B7040003A5070297F0F26FE7805F
:107D600000DD81475CC01CC49F0764AF04009C43D6
:107D7000DC4791E711281F050109000244804A856C
:107D8000829719200145DDBF268517F3F26F670042
:107D9000E3188880AA8ACDC21F0A64AF0400832733
:107DA0000A00D9CBDC4FC9CBBA89368432892E8BF5
:107DB0008297AA8451C542091359094163460908AB
:107DC00097F0F26FE78000149C402A898DEF80C005
:107DD00063800904B7B7040003A50702B14597F013
:107DE000F26FE780C0CC2A8419C53146CE859790C2
:107DF000F26FE7802022C0C001EC15281F040309A0
:107E00000002228584802D201F0404090002D5BFB2
:107E1000392883270A0001449C4BE5D7DA8556852B
:107E200082972A8479DDD6852685013FD9BF4A8588
:107E300017F3F26F6700830E1F0401090002D1B728
:107E40001F040009000275BF1F040909000255BF85
:107E500028809F0764AF04009C432A8481CBDC4FB9
:107E600091C7829701C9A2852080C1BD1F05010964
:107E7000000224801F0500090002E5BF9F0764AFD0
:107E800004009C4381C79C4791C382871F05010959
:107E9000000282809F0764AF04009C4381C7DC47D7
:107EA00091C382871F050109000282809F0764AF8A
:107EB00004009C4381C79C4B91C382871F05010925
:107EC000000282801880AA8711C997F0F26FE780BC
:107ED000409BAA873B0205FF930715003E85108053
:107EE0006F00D06C9F076CAF040098439F0670AF83
:107EF0000400D4C294C28145230707009C420CCBE6
:107F00008505D0431CC350C3D04318C2D8C3510702
:107F10003B9AF51401458280288021C92A8497F074
:107F2000F26FE78020FE1F0770AF04005C43639A86
:107F3000E70097F0F26FE78060FE1F05031D000267
:107F40002480D443984398C2984354C3014785463C
:107F5000DAA7F4A798C7DCC39CC39C4B1CC097F05E
:107F6000F26FE780A0FB0145E1BF1F05021D000283
:107F7000C1BF2880BB7615149F076CAF04008043F7
:107F80005B14A41497F0F26FE780C0F77C2485CBD4
:107F90005C40631AF4025E249DE77CA49F0770AFE7
:107FA00004009C43D8431CC058C0D84300C3C0C37E
:107FB000014497F0F26FE78060F6228524801F0469
:107FC000011D0002FDB71F04091D0002DDB71F04DB
:107FD000011D0002DDB72880378411901305A4FF2E
:107FE0009790F26FE7808012AA8505461305A4FFDB
:107FF000208017A3F26F6700E3924F757470757459
:1080000020696C6C6567616C20737472696E67219E
:108010002076736E7072696E74665F732066616934
:108020006C6564210A004F73567072696E74662C19
:10803000206D616C6C6F63206661696C6564210AF8
:1080400000009F07B0AF040098439F06A8AF04004C
:10805000D4C294C2130707028145230207FE9C4243
:108060002326B7FE8505D0431CC350C3D04318C296
:10807000D8C3130707033B99F50A0145828078802E
:1080800055CEE9C161C393064700B3B7D502DDEF12
:10809000AE84B385D502B7BA040003A54A02BA89F3
:1080A000328997F0F26FE78080A02A8A45C597F061
:1080B000F26FE78020E59F07A8AF0400C04363117B
:1080C000F40297F0F26FE78060E503A54A02D285DB
:1080D00097F0F26FE780A0A51F05040600027480E8
:1080E0001C4054409CC21C40D4C385472302F4FE6C
:1080F000930784FF232EF4FE232CF4FE93078400C1
:108100005CC41CC4231394FE231434FF232044FFB7
:10811000A30204FE231A04FE231B94FE231804FE6C
:10812000231904FE40C000C097F0F26FE78000DF23
:108130008327C4FE01452320F90055B71F050C060F
:10814000000271BF1F050D06000251BF1F05030687
:10815000000271B71F050206000251B75880BB78B4
:10816000250A9F07B0AF040080435B14A43097F04A
:10817000F26FE78020D95C20AA89BDC75C4C130749
:1081800084016397E7065C50930404026392F4064B
:108190005C5413078402639DE7045A287E28BA972B
:1081A0007A20639BE7045C30014999EBB7B7040080
:1081B0000C4003A5470297F0F26FE78040972A89A9
:1081C00081475CA01CC09F07A8AF04009C43D84314
:1081D0001CD058D0D84304C3C4C34E8597F0F26F67
:1081E000E780C0D34A8554801F090A060002F5B70C
:1081F0001F0908060002D5B71F090B060002F1BFD0
:108200001F0905060002F9BF5880E5C5BB7B350A8A
:108210002E842A8913068002814522859790F26F69
:10822000E78040E09F07B0AF0400844397F0F26F0F
:10823000E78040CDAA89DB942431DC20DDC7FE2015
:108240002320240103A9C4015EA09E247EA09E28B1
:108250001EA4BE283EA4DE287EA4FE285EA44920DB
:10826000138784016398E70203A9440295281387C2
:108270000402639BE70203A9C4029D2013878402C2
:10828000639EE70201444E8597F0F26FE78000C9D4
:108290002285548035281C48032909035D8D5C48DC
:1082A00008C8DD8D4CC865BF25201C4C0329090377
:1082B0005D8D5C4C08CCDD8D4CCC4DBF11281C5025
:1082C000032909035D8D5C5008D0DD8D4CD075B756
:1082D00003264901054581451783F26F6700032591
:1082E000130949FD9307C90282801F040A06000290
:1082F00059BF1F041706000261BF1F040E060002CB
:1083000041BF488029CE32842E89AA8497F0F26F2B
:10831000E78040BF1F07B8AF04005C43639AE700E3
:1083200097F0F26FE78080BF1F05030700024480CB
:108330009843D44398C2984354C30547238CE7FE1F
:10834000A38C27FF239D97FEDCC39CC383A7C7FF95
:108350001CC097F0F26FE78060BC0145C9BF1F05E4
:1083600002070002E9B79F07B4AF040098439F06D5
:10837000B8AF0400D4C294C221078145230C07FE84
:108380009C42232EB7FE8505D0431CC350C3D04367
:1083900018C2D8C34107BB99F50A01458280C1675D
:1083A000FD172E866304F5008145A1BF1F05080750
:1083B000000282802E863B720502854599B71F0513
:1083C00008070002828028803B77150A9F07B4AF18
:1083D000040080431B04A40897F0F26FE78080B28A
:1083E0001C208DCB5C44130784006319F702230023
:1083F00004009F07B8AF04009C43D4431CC454C47A
:10840000D443014498C2D8C397F0F26FE78000B11B
:10841000228524801F0401070002FDB71F040907FD
:108420000002DDB71F0401070002DDB70CC1CCC19B
:108430008CC182809C411F07CCCCCCCC6393E702DB
:10844000910563E7A5000D8D19E908C201458280F9
:108450009C411F07CACACACAE384E7FEEDB71105EB
:10846000EDB7FD571CC205458280488237290020A0
:108470008327C9E09F06CCAF0400D4C23ECE9F073D
:10848000C8AF04009C4394C20146984292AB0506D3
:108490004C4398C3219ECCC34C439CC15CC393877F
:1084A00047023B1AF62881473EC49F07B664040082
:1084B0003EC29F07000800003EC81F0478AF0400BA
:1084C0009F077087119001483ECA50C8930700105B
:1084D0004C000A8542C63ECC7927AA840DED37B7F9
:1084E00004008247032787FE9F05D4AF04001CD4F5
:1084F000DB17F75C9847130584001367270098C7BC
:108500003537F2470327C9E02685638AE70097D00D
:10851000F26FE780A0739F040C030002DDB7448272
:1085200028807C252A848DE75C3589C7F917819FCF
:108530003BF807021C4C37B504001CC4A285130588
:1085400005F897E0F26FE78060E98D475CA424802E
:108550005C48D5B788803DC93BFF150341C2D9C2ED
:10856000BA8A368AB2892E8B2A8997F0F26FE78011
:1085700060999F07CCAF0400C043631AF40097F0E2
:10858000F26FE780A0991F05040300028480444035
:108590001C409CC01C40C4C3814444C004C097F02C
:1085A000F26FE780A09789475CA41E28232034033C
:1085B000A306640164A4232A2401232C2401232E6E
:1085C000540104C42310FA000145C9B71F05010373
:1085D00000026DBF1F05020300024DBF1F0500030F
:1085E00000026DB71F05030300024DB748802A84BF
:1085F000AE8497F0F26FE780E0902A89228597E0B9
:10860000F26FE780A0FC2A8419E515201F040503FA
:108610000002228544805C25BB8E07023BE11702E5
:108620003B8607031F040E0300021120DDB74A85B5
:1086300017F3F26F6700838EAA8537B50400130520
:1086400005F897E0F26FE78000DD89475CA4230717
:10865000040099C044C804CC2285D9350144F1B73F
:108660001F0406030002D1B70146814541B7388097
:108670002A8497F0F26FE780E088AA84228597E049
:10868000F26FE780A0F42A8419E535201F04050362
:108690000002228534805C253B850702BBE017027F
:1086A0003B8807031F040E03000221A01F040D03D3
:1086B00000021120F9BF268517F3F26F67000386C9
:1086C000AA8537B50400130505F897E0F26FE78037
:1086D00080D489475CA4230704000144D9BF1F0448
:1086E00006030002F9B748802A8497F0F26FE7800A
:1086F00060812A89228597E0F26FE78020ED2A8445
:1087000019E515209F0405030002268544805C2599
:10871000BB8D07023BE517023B8607039F040E0350
:1087200000021120DDB74A8517E3F26F6700037F6F
:10873000AA8537B50400130505F897E0F26FE780C6
:1087400080CD2307040085475CA47C348144F1FB81
:108750009F07CCAF04009C43D8431CC058C0D843EB
:1087600000C3C0C344A475BF9F040603000255BFE5
:108770005377745F5461736B00009F07ECAF040084
:1087800023A007000145828028809F07F4AF0400E2
:108790009CC3DCC39F07E8AF040098439F06E0AF8B
:1087A0000400D4C294C21307C70201448547231CA6
:1087B000F7FC9C42232487FE0504D0431CC350C30E
:1087C000D04318C2D8C31307C705BB18F40FEF0076
:1087D000F01E9F0500B004001F0578AF0400B931FA
:1087E0009F07F0AF040080C30145248028801C450A
:1087F0002A8463CB0700B7B704000C4903A54702DE
:1088000097E0F26FE780A0329F07E0AF0400D44307
:10881000232804001307C40214D85CD498C2D8C318
:1088200024803881B724002083A7C4E028003EC6F6
:1088300097D0F26FE780E0279F07F4AF0400C043B2
:108840006310F402224597E0F26FE780206DB24793
:1088500003A7C4E0638FE70097D0F26FE780003F83
:10886000228597E0F26FE780C0D7130544FDBD3F36
:10887000E1B73481B7C7040083A7076099C3C84B29
:1088800082801F05070200028280B7C7040083A709
:108890000760014591C3885782807881B72A0020FC
:1088A00083A7CAE0AA892E843EC66305051663879E
:1088B00005169C49638807169C4163890716DE21CB
:1088C0003BFD5720B7B7040003AA4702DC4589E700
:1088D0009F0700080000DCC54444528597E0F26F12
:1088E000E780002A636C95144844952848C4AA84FC
:1088F00013050020AD2063E7A4145C441307F010B7
:108900006372F71495201F09E0AF04008324490027
:10891000638A240F938744FDF5CB268597E0F26F99
:10892000E78020CC05284C445285414697E0F26F01
:10893000E780601C2A8A15ED05288327490023A0BB
:1089400024011F0400020003DCC084C32322990019
:10895000112079A8224517E3F26F6700235CC14517
:1089600017D3F26F6700A33A280017D3F26F67009E
:1089700043142A864C4403A584FEEF0030511C4466
:10898000184023AAA4FC23ACF4FE5C4423A244FFB9
:1089900023A804FE23A0F4FE5E2023A6E4FE138792
:1089A0008401D8CC98CC1848239DF4FC8147DCD4B2
:1089B000DCC89CD09CD4854723AEF4FC23AA04FEDB
:1089C00023AEE4FE9307000081CFB7C7040083A75E
:1089D000076003A584FECC4B97000000E700000071
:1089E0008947239CF4FC83A784FE014423A0F9005B
:1089F000B24703A7CAE02285638AE70497D0F26FE3
:108A0000E780C0241F041102000299B71F0401026D
:108A100000023DBF1F0407020002D9BF1F0401026C
:108A20000002F9B71F0405020002D9B71F040402AF
:108A300000027DBF1F04030200025DBF1F0420026D
:108A400000027DB71F04060200025DB774814881F1
:108A50009F04E8AF04003729002080408327C9E045
:108A60005B14A45C3EC61C44898B639107122800EA
:108A700097D0F26FE780E003CD2813F71700631358
:108A8000071013F7070115C39F0778AF0400985329
:108A900029C70547D8D71F040B02000311205DA08A
:108AA000224517E3F26F6700634713F747004DC78E
:108AB0001305C40297E0F26FE78000117D20ED9B63
:108AC0005EA0652093F7070A91C7228597E0F26FB1
:108AD000E78020B55928F59B5EA0412813E61700D2
:108AE0007D5752A038C023260404C18BD1C71C4433
:108AF00063CE07009F07F4AF04009C431307C40232
:108B0000D4435CD414D8D44398C2D8C39F07F0AFE1
:108B1000040098409C43DB17F75C5848D2A3D8CB9D
:108B2000184898CB185498D785475EA097D0F26F15
:108B3000E780C0120DCD9F0778AF04000947D8D752
:108B400085370144B2470327C9E022856384E704DF
:108B500097D0F26FE780800FA18BA5D71305C402D1
:108B600097E0F26FE780E0A7A9BF5E20828097E0E0
:108B7000F26FE780A00EE9B785475EA02285BD3180
:108B8000014429BF1F040A02000209BF1F04140286
:108B900000024DBF44819F07F0AF04009C43637403
:108BA000F50081456DB51F050702000282804881EE
:108BB000372900208327C9E03EC69F07F0AF040095
:108BC0009C43637DF5089F07E8AF040080435B1476
:108BD000A45C280097D0F26FE780A0ED5E20A2444D
:108BE00013F7170025E713F727002DC713F7D7FF53
:108BF00093F78702219F91CB5AA0014411202DA801
:108C0000268517E3F26F670063316E201367470014
:108C10005AA005461305C40297E0F26FE780E0F61C
:108C2000C5379F07FCAF04009C430144858B89C76F
:108C300097D0F26FE780A0E8B2470327C9E022850A
:108C40006382E70297D0F26FE78040001F040A02B8
:108C500000026DB71F04090200024DB71F0407028E
:108C60000002D9BF448128802A84053901E50840E3
:108C7000208035BF24802882372400208327C4E049
:108C800023270100232B01003ECE9F072667040007
:108C90003EC2930700603EC837B504009F073A8F75
:108CA00011903ECA4C00FD47130545F923250100EC
:108CB000231D01002314F1007D3719ED9F0778AFC4
:108CC00004001F07E8AF04001843DC4FDB17F75C14
:108CD00098471367270098C7F2470327C4E06386C5
:108CE000E70097D0F26FE78060F624825881B729B9
:108CF000002083A7C9E0AE843EC63BF625209F072F
:108D0000F0AF04009C43637AF5089F07E8AF0400C6
:108D100080435B14A45C1C44898BC1E7280097D076
:108D2000F26FE78000D95E2013F7170031EF13F7D9
:108D3000470031C71309C4024A8597E0F26FE78004
:108D4000A0E8054666A0A6854A8597E0F26FE78011
:108D5000C0E305448144224597E0F26FE780001CA0
:108D600009C497D0F26FE78080D5B24703A7C9E066
:108D70002685638CE70297D0F26FE78020ED918320
:108D800066A013F41700F9B701449F040A02000219
:108D9000D9B79F0403020002C9BF9F040702000263
:108DA000E9B79F0414020002C9B7548148813729EA
:108DB00000208327C9E0AA843EC697D0F26FE780DF
:108DC000E0E92DE5B7C7040003A407601C44898BC4
:108DD000B5E397E0F26FE780E0812DC191EC97E079
:108DE000F26FE7804099B2470327C9E0638CE7043C
:108DF00097D0F26FE78080E5280097D0F26FE78088
:108E000040CBA685228597E0F26FE780A0805E20A8
:108E100093E707025EA097E0F26FE78020E4224527
:108E200097E0F26FE780800F014575BF1F050D02C7
:108E3000000355BF1F051402000275B71F050E027F
:108E4000000255B744815881B729002083A7C9E0A3
:108E50002A892E843EC6F9C59F07F0AF04009C43C3
:108E60006376F50C9F07E8AF04008443DB94A45CB1
:108E7000280097D0F26FE780C0C3DE2013F71700F9
:108E800011CF61281F050A020002B24703A7C9E0FB
:108E90006382E70A97D0F26FE78040DBC18BBDE7C2
:108EA0009C407CC4DE203146938504045EB0FE20E5
:108EB000130504037EB0DC443CC09C487CC0978012
:108EC000F26FE7802015FC449054FD465CDCDC4CDE
:108ED0009305000222851CD49C50232024035CD4DB
:108EE0009750F26FE780007ADC4488486C401306A4
:108EF00044053E957C44419928C4B307F5403CC8DD
:108F0000EFF04FD328CC1128014541B797D0F26F2D
:108F1000E780C0D451F58A8769B7224517E3F26F1D
:108F20006700C3FF1F050102000285B71F05070286
:108F30000002A1BF54810145828049646C65436F82
:108F400072653030300018809F0708B004009C43E1
:108F50001307703E6378F70097C0F26FE780C02C6C
:108F6000014514801F0500040002E5BF38802A84F3
:108F700015CDAE842E8681459780F26FE780800AFA
:108F8000938744FF18481CC49385C4FE9D579BC516
:108F9000F5CAB7070080F98F9306C400CD8F14C0BF
:108FA000232604001CC854C0054534800145F5BF84
:108FB00041112A8722C626C4054505C79DC15C43C9
:108FC000014881440144B1468DE31C47054563EAED
:108FD000D700958F94C180C5DCC123A6050184C943
:108FE00001453244A24441018280D043370500400C
:108FF0007D1593181600718D63D70800A106AA96F7
:1090000005089C43D1B76373A4002A848504D5BFA7
:109010004E6F206D656D20746F20616C6C6F6320E6
:109020003078257820427974657320617420706FE0
:109030006F6C5F616464723D30782578210A00307E
:1090400078256C78206F7574206F662072616E676A
:1090500065210A004881372900208327C9E0AA84B6
:109060002E843EC605459DCC3BEF0515B3E7B40005
:109070008D8B89CF1F05829111909790F26FE780B9
:10908000208E93053400F1991384C5FF280097D0F2
:10909000F26FE78000A2A2852685C93DA24701EDB7
:1090A00031280545B2470327C9E0638EE70097D012
:1090B000F26FE780A0B919200145EDB73E8517E3AF
:1090C000F26F6700A3E54481054669B728801F0455
:1090D00024B004009F05C0D2000008C0F5371C4032
:1090E0001F0720B004001CC324805882B729002029
:1090F00083A7C9E02A892E843ECE854415C18DC13F
:10910000480097D0F26FE780C09A2C004A854D3511
:10911000AA84124585C097E0F26FE78020E085447D
:10912000F24703A7C9E026856386E70297D0F26F6E
:10913000E780C0B1A24744C81CC0B2475CC0C24768
:109140001CC4D2475CC4E2471CC897E0F26FE780BA
:10915000E0DCF9B7548282806661696C20746F200C
:1091600066726565206D656D6F72792C20706F6F0A
:109170006C3D5B25705D2C206D656D3D5B25705DE4
:109180000A00706F6F6C2073697A652030782578DB
:109190002073686F756C6420626520616C69676E0E
:1091A00065642077697468204F535F4D454D5F417A
:1091B0004C49474E5F53495A450A00009F072CB05F
:1091C00004000147DCC39CC30507A1073B1EF72031
:1091D00082801F054E93119082803B7B055A854704
:1091E000B397A70015813B0405013B050502F3B7C2
:1091F000473001458280BE8273B002BEDDBFBE82B1
:1092000073B012BEFDB71F050009000282803B7BD0
:10921000055A8547B397A70015813B0405013B0517
:109220000502F3A7473001458280BE8273A002BECB
:10923000DDBFBE8273A012BEFDB71F05000900028C
:1092400082801880AA873B74355A3BF53507014563
:10925000BBE3171A9917939627001D478D830D8F2F
:10926000FD171376F70F3BF707073E8513F7C60187
:10927000BD4797E0F26FE78000BF26364452606E2C
:109280007C00F32700BC3D473317D7001347F7FF97
:10929000F98F3317D6005D8FBA82739002BC1480A9
:1092A000F32610BC8520BE82739012BC0145C5BF59
:1092B000F32620BC8128BE82739022BCC5BFF32652
:1092C00030BC8920BE82739032BCCDB7F32640BC3F
:1092D0001528BE82739042BCD1BFF32650BC1D201E
:1092E000BE82739052BCD9B7F32660BC2128BE82DF
:1092F000739062BC65BFF32670BC2920BE82739058
:1093000072BC6DB7B397E70093C7F7FFF58F3317BC
:10931000E600D98F82801F050009000249B71F05AA
:1093200005090002ADBF9F07B4C10400694723AC23
:10933000071223AE07120507B1073B1DF75AB7B74F
:1093400004001F075493119023A2E7F68280504C2B
:109350004943000000000000486E04000E92119086
:10936000DA91119042921190106E0400D2911190F6
:10937000186E04002C6E04000145828028802A8427
:1093800097E0F26FE78000B89F07101E002080C3AF
:1093900097E0F26FE78080B80145248048811F0480
:1093A000ECC504005E242A89AE84BBE237028D47F7
:1093B0001EA0FD571CC49C442311240104C85CC09A
:1093C000EFF0AFCC1E205A2436201044AA851F058A
:1093D000129511909780F26FE7808058004883289B
:1093E000C408032844011C485844144450400C400D
:1093F000484C65201F054695119055208328C407C9
:10940000032884047C440327040883264408032695
:1094100084080C4C285C51201F059995119041201F
:1094200083284404032804067C503854745430586C
:109430006C5828409D201F05DA9511908D208328B7
:109440004402032884025C5418585458105C4C5C45
:109450000850A1201F051B96119091203848744890
:10946000304C6C4C1F055E96119040811783F26F53
:109470006700034FB7B7040083A7C7FF858B8DDB59
:1094800097C0F26FE780807D19C1894715B785477E
:109490001EA0EFF02FBE08C439BF2AC082801783F8
:1094A000F26F6700E34B18809F07ECC50400DE27CE
:1094B000BB9407019F07101E00209C4391C3829715
:1094C00001A0E93DF5BF0F00F00FB717020023AC74
:1094D00007C08280388044412A841F05A8981190D3
:1094E0009780F26FE780C047F93FA28526857D35DA
:1094F00001A028802A8497E0F26FE780A0A09F0750
:10950000141E002080C397E0F26FE78020A1014580
:1095100024807461736B3A25730A746872645069AD
:10952000643A307825780A747970653A307825780D
:109530000A6E657374436E743A25750A70686173B8
:10954000653A25750A006363617573653A3078255D
:10955000780A6D63617573653A307825780A6D74A1
:1095600076616C3A307825780A67703A30782578D9
:109570000A6D7374617475733A307825780A6D6575
:1095800070633A307825780A72613A307825780A23
:1095900073703A307825780A0074703A30782578FC
:1095A0000A74303A307825780A74313A3078257860
:1095B0000A74323A307825780A73303A3078257850
:1095C0000A73313A307825780A61303A3078257854
:1095D0000A61313A307825780A0061323A307825CC
:1095E000780A61333A307825780A61343A30782540
:1095F000780A61353A307825780A61363A3078252C
:10960000780A61373A307825780A73323A3078250B
:10961000780A73333A307825780A0073343A307810
:1096200025780A73353A307825780A73363A3078D7
:1096300025780A73373A307825780A73383A3078C3
:1096400025780A73393A307825780A7331303A3000
:109650007825780A7331313A307825780A007433E6
:109660003A307825780A74343A307825780A743597
:109670003A307825780A74363A307825780A00002E
:10968000188097E0F26FE780E08701A0488032847D
:109690002E892E86AA849F05CACACACA22859780A7
:1096A000F26FE78020989F07CCCCCCCC130509EF54
:1096B00022951CC09F07020202021CC513078500E9
:1096C0009306C5101C431F06010101011107B29743
:1096D0001CC3E319D7FE9F07807800001CC19F07B9
:1096E000366704005CC19F07809611902320051007
:1096F00064D57CDD44800000000000000000000014
:10970000732500349782EE8F9382027183A2020048
:1097100082927321003489629382028073A00230A6
:1097200083220111739032009302010987AD020078
:1097300007AD420087AC820007ACC20087AB0201D4
:1097400007AB420187AA820107AAC20187A90202C8
:1097500007A9420287A4820207A4C20287AF0203BC
:1097600007AF420387AE820307AEC20387A8020495
:1097700007A8420487A7820407A7C20487A6020598
:1097800007A6420587A5820507A5C20587A302068D
:1097900007A3420687A2820607A2C20687A1020784
:1097A00007A1420787A0820707A0C207C2427390A1
:1097B0000230D2427390123405610B06E17F45619D
:1097C0008B0FF1FF216173002030130000000100B6
:1097D0009732F36F9382C2E10393C20063160300D2
:1097E0001781EE8F13010182050323966200370370
:1097F0000040B3736A0063840300C14231A8370399
:109800000080B3736A0063840300C54231A0B702CD
:109810000080FD12B3F259001685F325003497023B
:109820000000938282C8829201A000000000000024
:10983000930201010B96E27F9302010827A0B20177
:1098400027A2A20127A4920127A6820127A87201BC
:1098500027AA620127AC520127AE420127A032039A
:1098600027A2220327A4920227A682024111732A6B
:1098700020FC52C0F32920344EC2732930344AC42C
:109880000EC6F324003026C87324103422CA12CC2A
:109890000ACE7310013491C111A01DBF1781EE8F44
:1098A00013014196B1BDDDBC4F6F70733A4E4D4907
:0898B0000A00000000000000A6
:1098B80048802A8997C0EF6FE780207F2A8419E4BF
:1098C8004A85408017C3EF6F6700E37E2285044016
:1098D8009710F36FE78060F111E5228597F0EF6F3D
:1098E800E780A08C2684E1BF372504001305858313
:1098F800C1B718809F0754D2040088C30147814626
:1099080001469F052CA1040013051004EFD06FAA8F
:109918009F078473119083C5170413051004EFD0B3
:109928000FAD1305100410806FD0EFAA188013052F
:109938001004EFD00FAB81451305100410806FD0D1
:109948002FA918809F0754D20400C8C30147814635
:1099580001469F053CA1040013052004EFD06FA524
:109968009F078473119083C5270413052004EFD043
:109978000FA81305200410806FD0EFA518801305D9
:109988002004EFD00FA681451305200410806FD066
:109998002FA49F0750D20400239007009F074CD2A2
:1099A800040023A00700828068807C312A84AE846A
:1099B80099C3FD177CB103290400131A0901135A2E
:1099C8000A0152859770F26FE780C0F49E24AA8935
:1099D800231AF5088357250C85072311F50C8C40AD
:1099E8005285EFB0B7001F063E000B00CA854A85B6
:1099F8009770F06FE780A05283C7E90489E73D2894
:109A08008920014564809A2483D7490A998F03C71E
:109A1800B905A19FB3E7E70281EF83C7E9143B9338
:109A2800070183C75915BBF207074E85EFD0B11858
:109A3800312001284E85EFF0A123E1B74E856FC094
:109A4800071208401773F26F670043DB0347651579
:109A5800BB76070FB7D71890938787F49B87E704DF
:109A68009C4382878547A30AF51482808947E5BF0E
:109A78008D47D5BF9147C5BF9547F5B79947E5B716
:109A88009D47D5B7A147C5B768821C412A849F0462
:109A98009C0404003EC49770F26FE780A0C8482C6D
:109AA8006D699770F26FE78060D0A247BB17050217
:109AB8003EC670001385840755282A8421E19770D3
:109AC800F26FE780A0C601456482938904023EC80C
:109AD80010084E8561282A847DD14E85224A97C078
:109AE800EF6FE780005D1A2C54442A86D2851F0543
:109AF80034CC80299770F26FE78040B602CA02CC56
:109B080002CE34001306A95D4C081385C4028D28C3
:109B180013858403952013854404B9289770F26F40
:109B2800E780C0C048089700F36FE78000BF08448B
:109B380097E0EF6FE780606722859700F36FE78013
:109B480020BA9720F06FE78020C79720F06FE78052
:109B580020961385040297C0EF6FE78080553B7A03
:109B6800D50381450545EF50810AB1BF9305A95D2D
:109B780017C3EF6F6700C37534001306A95D4C085F
:109B880017C3EF6F6700036E81471F0748D70400AC
:109B9800B306F7002380061A85073B9CF70DA3063A
:109BA800071A82805880832905002A89AE84139574
:109BB800090141819730F06FE780C0EA9624904010
:109BC800939509012A84C1811F0533EE802A977075
:109BD800F26FE780A0A89770F26FE780A0B4834780
:109BE80079004A3483554406B9CBFD15A19D97C029
:109BF800EF6FE78040D38357440685072312F406A6
:109C08009C403CD0854522859720F06FE780402115
:109C18008347E402BB93070122859720F06FE78012
:109C280020032285EF90517D9770F26FE78000B096
:109C380022859720F06FE780E00D014554809C4015
:109C48003CD0938715002312F40697C0EF6FE78086
:109C580080CD4DBF28802E849770F26FE78000C6B4
:109C6800B717040083D76719370741599305C4FF0D
:109C78003E975E3560C1A19DDB17F7C0AEAF8EAFD2
:109C88002480688206062A8493140601B6891399EB
:109C980015009770F26FE780E0A822859730F06F83
:109CA800E78040DC8347E5022A84C18068413B9312
:109CB80057018357E40503574406130A204EB38916
:109CC80049031D8F219F8357C40583452405231409
:109CD800F1003305A702384C231134052695FD54AD
:109CE8002A979580658F3AC29770F26FE780008C4B
:109CF8001306050183552404684006069720F06F73
:109D0800E780E0F131C13357450383572404AA970C
:109D18002311F40492470581998F1307102733758F
:109D2800E50203578100E58F3EC26379A700FD175E
:109D3800E58F130717273EC22314E10083578100DC
:109D48003385A7402314A1008356240403564406F0
:109D58004C00938706FE2310F404B717040003D7BA
:109D680067195E3422855B17F7C0B7074159BA9760
:109D78009E2B0357E405A1833307E640FD8BB38789
:109D8800E7020347E406BA9713075002B3F7E7025E
:109D98002307F4069720F06FE780605512464E348B
:109DA80003572404835681001F05349E812A977027
:109DB800F26FE780A08A92461C54A309040433F783
:109DC800260323A427016800D8CB1C4036CA4AC8FA
:109DD8003EC683578100231CF10083574406231D88
:109DE800F1008547230EF1009770F26FE78000A31A
:109DF8009770F26FE780809364823C500156231479
:109E08000100AA97A6979BC7C7CA3EC241BF3B0499
:109E180005023B620502BB63050501458280130507
:109E2800300482801305C0038280188097F0F16F98
:109E3800E78020AF9720F26FE780C0B110801763EA
:109E4800F16F670043D118809760F26FE780007761
:109E5800E93F10801773F16F670003B799E1930525
:109E680000108D816FB0A00DB727040083A7478C21
:109E780081469C439C5311C91307D00E994663062B
:109E8800E500954619A083A787FF91CBE39DB7FE10
:109E9800014685453E851773F16F670043C0828090
:109EA80038811306F1009305E100AA840045EFD03C
:109EB800840001C9814526859700F26FE780807884
:109EC800348118508347F1001377070401EBEDDB69
:109ED80026859710F26FE780E09FDDB7F5F3CDBFD9
:109EE8007881004583477402444018503B95070227
:109EF800936707201CD09710F26FE78080C67481A3
:109F0800936707401CD0BC38B42CF58F858B81C76C
:109F1800936707601CD0A928C18B89C71C5093E799
:109F280007021CD0B120A18BA1CB22859700F26F2C
:109F3800E78080E269D51C50138A0401938A740172
:109F480093E787001CD0D685528597F0F16FE7809C
:109F5800E0772380A406930710086309F500BB7A0D
:109F680005823B77E5021C50DD9B1CD022850DA89D
:109F7800BC38B82CF98F82801C5093F70704C5FFB2
:109F88008D472303F40245BF93072008630CF502AD
:109F980093073008E315F5F61C502285C18B91C74D
:109FA8009700F26FE78080D499BF97F0F16FE78050
:109FB800606AB727040083A7478D2A8681459C439A
:109FC800A52035BF228597F0F16FE780A0681C5067
:109FD800AA89D68513D967005285134919001379C0
:109FE800190097F0F16FE780206C372A0400631995
:109FF800A904EFC0947A15CDEFC0747B2AC69146A8
:10A008007000C14526859740F26FE78000A4C146DD
:10A0180026869945138589009720F26FE78060BEF0
:10A028001D208545112099B7884F17F3F16F6700F8
:10A03800A361D14526859730F26FE78040D1C1BF33
:10A0480019208945B5BF83274A8D4E869C43828057
:10A058005884BB02064129473A8554842A844441DE
:10A068002E852E899770F26FE780C0056DD593898C
:10A07800240C13060004CE854A859770F26FE7809A
:10A0880060F871D9930600044A86B6854E859740D4
:10A09800F26FE780809B1307100F5DFD9F07BE835B
:10A0A800605A3ED09F07DB0B37603ED29F0738A52A
:10A0B800F5AA3ED49F079183886C3ED602D802DA6F
:10A0C80002DC02DEEFD013420A86CA859770F26F6F
:10A0D800E780C0FE130600020147938624068A859E
:10A0E8003305C1009730F26FE78000E61C50414706
:10A0F8001BA7E7F218D00D472303E4029396B70095
:10A108000147E3CB06F493F7070499E7A685228570
:10A118009700F26FE78020C1A68522859700F26F2D
:10A12800E78000B001470DBF28803284EFD0533C50
:10A13800930600042A86B685228520801743F26F8D
:10A148006700A39048825C452A84C44B1C51A18BAC
:10A1580089C79C3093E727009CB01C50C18B89C7E6
:10A168009C3093E717009CB0130560049760F26F6A
:10A17800E780404B2A89484419462C00130585037B
:10A1880002C4231601009770F26FE780A0E701ED83
:10A198009F05CBAA0E271F057E01B3009770F26FAB
:10A1A800E780C0E244825044A1464A8513068603EC
:10A1B8009D285C449306E003268683C7E7041305BD
:10A1C8008900A303F90085209C3013F7070409E7E9
:10A1D800E207E18763D90702B717040083A7871648
:10A1E800A1CBC1453305B10097F0F16FE780C016E8
:10A1F8004147B306E1003A86930569024A8597709C
:10A20800F26FE78020C24844EF80146BB727040040
:10A2180083A7478D4A8691459C43884F97F0F16FF5
:10A22800E780804241B7B6851743F26F6700E38144
:10A23800C1460146B6853305D1009730F26FE780F5
:10A24800A0F97DB778802A8AAE84630C0512B72AF4
:10A25800040003A74A8DD2851C4323AE070A08438E
:10A2680021059720F26FE78040C103248A00054743
:10A278005C448329440003A947011C5093F7070451
:10A2880091C32D472303E402C1E881446399090A75
:10A29800834704021CD0638909004E859760F26FDA
:10A2A800E780C037232204001C4499C713058400A3
:10A2B8009770F26FE78000E699E4D28522859700CF
:10A2C800F26FE78000D5A68552859700F26FE78088
:10A2D800C02813058AFF9760F26FE7802034930740
:10A2E800000F6380F40A83A74A8DA28588439720CC
:10A2F800F26FE78080AD51C51C5071777D17F98FDB
:10A308001CD022859700F26FE780C00E2DC57080A3
:10A318001713F26F6700A3EA1F057E01B3002686B4
:10A328009F050BAA0EE79770F26FE780A0CA014558
:10A3380097F0F16FE78040273B96D405B9B7E3095A
:10A3480009F483441900A9D41C5093F7072099E70E
:10A358008347090093E707042300F9002285970043
:10A36800F26FE780802483470900814493F7F7FB65
:10A378002300F90031BF228570801703F26F670050
:10A38800A3D07480988104459C50858B89E783C746
:10A398007402BB981702AA89268583AA44009700ED
:10A3A800F26FE78080B52A84412AA9E79C509983F7
:10A3B80093C71700858BD69703C9C701630C090299
:10A3C80009459760F26FE780E0258946B685014622
:10A3D8002A8B9730F26FE78020E05A85C145973085
:10A3E800F26FE780C09689465A863305D4002D223D
:10A3F80019C1912A948193771900ADCB9C50C18BD8
:10A40800B5E71945392A02C002C202C402C61020A3
:10A4180005478A862A8ADA853A9597E0F26FE780B7
:10A428004050C1460A861305E402FD200122AD45CD
:10A438001D45CD28930B35002A8A930500045E85B7
:10A448009730F26FE780A090014713061A008A86BA
:10A45800DA855E8597E0F26FE780C051C128E92868
:10A4680093E73700E92893E747001CB09377290062
:10A47800BDC321457D202A8AC145050597F0F16FA6
:10A48800E78080ED6520A145254569283727040028
:10A498008327478D99462A8A9C43B685090583C731
:10A4A8002702A30FF5FE8327478D90437106B52039
:10A4B80019C99F050BAA16CD1F057E01B300977019
:10A4C800F26FE780A0B09D20852893E7C700852814
:10A4D80093E707041CB0137949006308090223AE07
:10A4E8000400C54529453D282A89C1455A860505E0
:10A4F80097F0F16FE78020E2CA851528352893E7A1
:10A508000701352893E707011CB035284E859700C9
:10A51800F26FE7800032F9BDB6851733F26F670036
:10A52800C352C54517F3F16F67008329D285268585
:10A5380017F3F16F6700C32683C7EA058280238F6C
:10A54800FA041C3082805A851763F26F6700030D86
:10A558009880B2846304051C2A229700F26FE78072
:10A5680000B72A84630D05181C5193F707046398F4
:10A5780007185C45494503A9470171225230B70BBA
:10A58800B3002A8A9F05CBAA16FB1385EB17977091
:10A59800F26FE78020A44A859710F26FE780C0F831
:10A5A800630C09108347190013F747006306071067
:10A5B800858BB9C383460900130649003522814AB1
:10A5C8004DEDBE208965E9052310FA00C9465946B4
:10A5D8001F051A20CA4297B0F16FE78040C2D285A2
:10A5E8003D22BD572303F40256851D2A26859080F7
:10A5F8001763F26F670083025C40DDEF2122AA89AE
:10A60800894601468520DE24A183A380F900DE2443
:10A618002380F900C52889460146AA8AA120130B80
:10A62800E902138544000147DA865686CE8597E00D
:10A63800F26FE78020344E85E5200946B305C9004E
:10A6480056859770F26FE780E09B15E10346090095
:10A658000147DA86D68513052A0097E0F26FE7806E
:10A66800402C85B7B6851733F26F6700E3B69F05B0
:10A67800CBAA1A1F1385EB17252852855520592078
:10A68800BE2089652A841EA1ED05894659461F0505
:10A698001B202C4297B0F16FE78060B6A285852811
:10A6A8009F05CBAA1A4F112081B71F057E01B30061
:10A6B8001773F26F670083915C4095CF1C50C18B74
:10A6C80099C79F05CBAA1A2CCD37814A7DB78145FA
:10A6D800228597F0F16FE780C0A2C1462A86AA8A30
:10A6E8002120E30005EE9480B68513052A00173370
:10A6F800F26F670083359F05CBAA1A39F1B7814AF3
:10A70800014AA5BF09451763F26F6700A3F12A86BE
:10A71800814601451763F26F6700C34C814AE9B56A
:10A728001763F26F670083EF13F535008280788036
:10A7380004452A899D45885083A94400137505045A
:10A7480013351500050597F0F16FE780600783C79B
:10A7580074022A84BB8A37029760F26FE78000523E
:10A7680008B0DC44AA8A2685BC3B93F70703B337B5
:10A77800F0003CA09700F26FE78020A38347D90040
:10A788002A8AE98FA306F9003CB09760F26FE78048
:10A7980060E73B1505019C5093F7070499C3034AEA
:10A7A800D900A30144018347C900858B81CBBB93A2
:10A7B8000A033C2081E73C30ED9B3CB0B7270400FE
:10A7C80083A7478D9C43DC2B5CA08347D900858BEE
:10A7D80089E783C77402BB9407029C5093F7070468
:10A7E800A5CB8D475CB07CA0930500081385E901D3
:10A7F8009720F26FE780A0559C509D46228699834A
:10A8080093C71700858BB387D702B68513850701D1
:10A818004E959730F26FE780402319C99F050BAA20
:10A828001ABE1F057E01B3009760F26FE780007AB9
:10A83800A2852685708017F3F16F670063F6994645
:10A848000146B68505059730F26FE780E098BDB7F9
:10A8580083C759018D8B5CB083C769018D8B61B744
:10A8680068812E89328A2A84B031B709B3009F05DE
:10A87800CBAA1AE1852822859700F26FE78080B776
:10A88800AA843DC5A307010052309F05CBAA1AE64A
:10A898009128D0349F05CBAA1AEF1F057E01B3007B
:10A8A800A120228597F0F16FE78040F35286CA8590
:10A8B800268597F0F16FE780A003A307A10005E1C3
:10A8C8001C50374708002685D98F1CD09700F26F97
:10A8D800E780609026859700F26FE780A0320345F5
:10A8E800F10064811385E9171763F26F6700836EBF
:10A8F800034639009305F10022859700F26FE7803F
:10A9080040B1AA849F05CBAA1AEA1385E917976074
:10A91800F26FE780A06BB5FC8347F1001307E00EE8
:10A92800E39FE7FAA30701005DBF000000000000F5
:10A9400028802A8401C9EFF02FFE09C522852080C6
:10A950006F20F00D2480B7B70400AA8503A5070275
:10A960006F50A016B7B70400AA8503A507026F5061
:10A97000C01D0F00F00F828005458280397106CE20
:10A9800022CC2ED232D436D63AD83EDA42DC46DE5B
:10A9900009C92A84D53711C54C1022852EC6EF402F
:10A9A000E06EF24062442161828001C508416F403F
:10A9B000A0297D55828048802A84AE8432853689DC
:10A9C00001CC3B0206FFEF40906DAA8608404A8604
:10A9D000A68540806F40201A7D5544801880EF5036
:10A9E00020540F00F00F14801880EF5020540F00F7
:10A9F000F00F14801880EF5020540F00F00F1480D7
:10AA00001880EF40003119E10F00F00F14806F4003
:10AA1000B0066F40900209C50841FD556F40A03C4B
:10AA20007D55828001C508416F40604F828028803B
:10AA30002A8419C93B8305FF2E85EF405066AA85FD
:10AA4000084020806F40B0077D55248001C5084133
:10AA50006F40B01182806F40305C6F40705D8280CB
:10AA600011C50A2117730D90670043C27D5582807E
:10AA7000188011CD0A2197700D90E78080C19F0743
:10AA80000D0300026307F50001E5054511A07D55A2
:10AA900014800145F5BF2E86BB72050399C185451B
:10AAA000B5A11F0501000080828038832A84AE840E
:10AAB000712911ED8A852285F93F814711E192576D
:10AAC00001456399F4001F053D13008021A01F0577
:10AAD0003213008034836880AA89AE84328911E2FF
:10AAE0007D593BF0190395CC89454E857D3F2A84DD
:10AAF0000DE51F0600D430008D4515201DE54E855F
:10AB00008D29A6854A862A8A4E85C52C2A848D459C
:10AB10004A863120D2854E85B129228564804E85B2
:10AB2000F5A61F0401000080CDBF1F043313008071
:10AB3000EDB79F07C4C904001B85A7041841C1765F
:10AB4000A19D1C47F58FCD8F1CC782809F07C4C96C
:10AB500004001B85A704184185891C43F99BCD8FF0
:10AB60001CC382809F07C4C904001B85A704184129
:10AB700085891C4BED9B9BA5B7040CCB828018806C
:10AB80009306000332873306D5029F07D0C904001D
:10AB9000B6853A853E96EFB09FED01451480411190
:10ABA00001479F07C4C904009B87A7049C4383A651
:10ABB000470E36C49395360163DC050083A7470E24
:10ABC0003EC49396070163C506000145410182809A
:10ABD0000507E378E6FC1F0533130080C5BF41116C
:10ABE0009F07C4C904009B87A70498438327470E87
:10ABF0003EC493963701E3D506FE8327470E3EC435
:10AC00009183858BF1FF8327470E3EC493960701FE
:10AC1000E3C806FC8327870C93160601C175C18221
:10AC2000ED8FD58F2324F70C9F07D0C904005B95C7
:10AC3000A730050650C10145410182804881AA84A0
:10AC40003284392E21ED1F09C4C904001B0999045F
:10AC50008327090083A7470E3EC413970701634368
:10AC60000704814535280327090054501D565C43CD
:10AC70008D8A9BC7C7E29BA7D7245CC35C503BE38C
:10AC800007020C542685FD156D35854511285C504D
:10AC90001F05D0C904005B1595305CD10145448186
:10ACA00026856DB51F053E130080D5BF3BF6050315
:10ACB0006F0380029D568D899BC7D7DE9BA7B7285F
:10ACC0005CC38280F515819DBBFEF5036F03C00058
:10ACD000B7063000D58FEDB79F07C4C904001B85A8
:10ACE000A70418415C4302835880814532842A8935
:10ACF000B13D4C2C4A859F04C4C90400453F9319BB
:10AD00002900544833863401F928DD9B9BA7D706D8
:10AD10005CC31448C928BD9B9BA7D7085CC31842D5
:10AD2000145001565C43FD8A9BC7C7E69BA7D71A00
:10AD30005CC31C4CBB9307024C503B9D25014A85CC
:10AD40001535B3873401984354501D565C438D8AA2
:10AD50009BC7C7E29BA7D7245CC30C54D9C9FD1578
:10AD60004A85C13B1C20B1E75C4089C7FD170547F8
:10AD7000B317F70033873401184393960701C17561
:10AD80000326870CC1826D8ED18E2324D70C5444A8
:10AD90001F0640420F005C4B3386C6021444B3D6F4
:10ADA000C6022E86BBF106028946A19EF18FD58F81
:10ADB0005CCBB3873401545498433D20ED9B9BA753
:10ADC000D7045CC34A858545513393060003330994
:10ADD000D9021F05D0C904002286B6854A95EFB076
:10ADE0001FC90145548018425C43858A8280814591
:10ADF000B9B78145B5B782808280B88180419F0B09
:10AE0000C4C90400131C2500C12898435C430329CE
:10AE10004700B583FD8B13594901938917001379B6
:10AE2000390093D93900BB120903852003C9C70132
:10AE300003AA4500B37A3A0363920A0CB28CAE843B
:10AE40002A8BA1209C4F3B9E070281450133DC44A5
:10AE5000A9CB9C44B9C781458128DC44BBEE0702DD
:10AE6000A5289C435A85984B1367270098CBCC4460
:10AE7000B3D53503FD15753985455A85C13959C096
:10AE8000B3563A0385E60145B4819F07D0C9040053
:10AE9000DB97A7308280892098431C4BF59B1CCB05
:10AEA000E1BF85451120C9BF5A856DB935209C4346
:10AEB00003A7470E3AC413164701635806003B9890
:10AEC00009011820D8D74E94FD16850AE3FC5CFBD7
:10AED0001F05331300804DBFB3878B018280631D34
:10AEE000090018300C2042071B07B7302C302E9772
:10AEF0002C201B07B710F9B71840E9B71F05381306
:10AF0000008059B71F0501000080BDBF9F07FC1ED0
:10AF100004009B87B7049C4382870000C81C040080
:10AF20005E1B0400BE1B04007E1B04001C1C0400EE
:10AF300091E99F07C4C904001B85A70408411305B4
:10AF4000450C82800145828005458280B70700520A
:10AF500083A7877233D5A7001345F5FF0589828043
:10AF6000B707005283A78772110533D5A70005895B
:10AF70008280ADB42E85BDBC5C459B85B7049841ED
:10AF80001C49937677001B86C7041C42BB9B0601B5
:10AF90009D8B3B9A07019F0764C80400D8C31842E1
:10AFA000D8C7584998CB584198C31845BB65070284
:10AFB00098A7184D0145D8CB82801F054613008005
:10AFC00082801F054913008082809F077CC804008F
:10AFD0009C2399CF9F0764C804009C433307B500A6
:10AFE00063ECE700637AE5006368B700014582809F
:10AFF0001F054013008082801F05010000808280B1
:10B0000078819F047CC804009C202A84ADEF7D5584
:10B0100059C4EF00301E6800BD2551E1B24A034912
:10B02000040083491400EF00300C2A8AEF00500C12
:10B03000AA86D2870147639AE604EF00B00B054663
:10B0400081451D3F29ED1F077DC8040085471CA3CE
:10B050005840B70710906367F7041F0664C80400E0
:10B0600014441C4263F3F600B6877D173E97B7067B
:10B0700080906379D7021CC285479CA09F077DC83A
:10B0800004009C2385E7014519A83E85F10703A626
:10B0900047FE6397CA004E86CA85F93D55D974812B
:10B0A000050751BF1F0542130080D5BF1F0541137F
:10B0B0000080F5B788812E8AB285AA89B28431379B
:10B0C00041ED7D55630A0A08EF00D01413F93900E9
:10B0D0002A8B630209049147B3872741B389294129
:10B0E00093FAF70F63F4F40093FAF40F02C61146D3
:10B0F0006C00A5202A8429ED7C00D68633862701A2
:10B10000D685952009C51F040400008091A09109EF
:10B11000569AB384544113F9C4FF630B09004A865D
:10B12000D28525282A840DE54A9ACA99B3842441F8
:10B13000014499CC9F0764C8040002C6D443114659
:10B140006C0005202A84A6867000A685292845FD66
:10B150005A85EF00700C228584819F0764C8040023
:10B16000D4434E8595A352856FB07F909881AE8A67
:10B17000B2852A8AB284913D2A844DE563890A0CFE
:10B18000B3059A005285EF00700993793A00AA8BB3
:10B19000638E09049147B3873741330A3A4113FB61
:10B1A000F70F63F4F40013FBF40F1F0964C80400E5
:10B1B0008326490095282A8409ED7C00DA86568684
:10B1C000DA8533853701EFB09F8A09C91F0404006F
:10B1D0000080112081A85E856F0070098326C90058
:10B1E0009D202A84110ADA9AB384644193F9C4FF3A
:10B1F0006DF0638E09009F0764C80400D4474E8633
:10B20000D685A120CE9A4E9AB38434411DE9F1D05F
:10B210001F0464C804005440012819C96D3F1F046D
:10B22000040000802285948111466C00528569A932
:10B23000A686568691456800EFB07F8365F1544439
:10B2400019202A8479B711466C00528539A37D54A0
:10B25000D1BF8880AA842E848D3B39E1B3858400D8
:10B26000FD7713974501B3F9F40041CBED8F0567E6
:10B27000BA971F0501000080639434036392F502BE
:10B280004E8533893541EF0060792A8B0144814A2C
:10B29000014A631E090481445A85EF00407D2685DA
:10B2A00084809C4B9B87D7048043935AE400568A42
